{"abi":[{"inputs":[{"internalType":"uint256","name":"minimum","type":"uint256"},{"internalType":"address","name":"creator","type":"address"}],"stateMutability":"nonpayable","type":"constructor"},{"inputs":[{"internalType":"uint256","name":"requestIndex","type":"uint256"}],"name":"approveRequest","outputs":[],"stateMutability":"nonpayable","type":"function"},{"inputs":[{"internalType":"address","name":"","type":"address"}],"name":"approvers","outputs":[{"internalType":"bool","name":"","type":"bool"}],"stateMutability":"view","type":"function"},{"inputs":[],"name":"approversCount","outputs":[{"internalType":"uint256","name":"","type":"uint256"}],"stateMutability":"view","type":"function"},{"inputs":[],"name":"contribute","outputs":[],"stateMutability":"payable","type":"function"},{"inputs":[{"internalType":"string","name":"description","type":"string"},{"internalType":"uint256","name":"value","type":"uint256"},{"internalType":"address payable","name":"recipient","type":"address"}],"name":"createRequest","outputs":[],"stateMutability":"nonpayable","type":"function"},{"inputs":[{"internalType":"uint256","name":"requestIndex","type":"uint256"}],"name":"finalizeRequest","outputs":[],"stateMutability":"nonpayable","type":"function"},{"inputs":[],"name":"getRequestsCount","outputs":[{"internalType":"uint256","name":"","type":"uint256"}],"stateMutability":"view","type":"function"},{"inputs":[],"name":"manager","outputs":[{"internalType":"address","name":"","type":"address"}],"stateMutability":"view","type":"function"},{"inputs":[],"name":"minimumContribution","outputs":[{"internalType":"uint256","name":"","type":"uint256"}],"stateMutability":"view","type":"function"},{"inputs":[{"internalType":"uint256","name":"","type":"uint256"}],"name":"requests","outputs":[{"internalType":"string","name":"description","type":"string"},{"internalType":"uint256","name":"value","type":"uint256"},{"internalType":"address payable","name":"recipient","type":"address"},{"internalType":"bool","name":"complete","type":"bool"},{"internalType":"uint256","name":"approvalCount","type":"uint256"}],"stateMutability":"view","type":"function"}],"devdoc":{"kind":"dev","methods":{},"version":1},"evm":{"assembly":"    /* \"Campaign.sol\":431:3887  contract Campaign {... */\n  mstore(0x40, 0x80)\n    /* \"Campaign.sol\":1818:1937  constructor(uint256 minimum, address creator) {... */\n  callvalue\n  dup1\n  iszero\n  tag_1\n  jumpi\n  0x00\n  dup1\n  revert\ntag_1:\n  pop\n  mload(0x40)\n  sub(codesize, bytecodeSize)\n  dup1\n  bytecodeSize\n  dup4\n  codecopy\n  dup2\n  dup2\n  add\n  0x40\n  mstore\n  dup2\n  add\n  swap1\n  tag_2\n  swap2\n  swap1\n  tag_3\n  jump\t// in\ntag_2:\n    /* \"Campaign.sol\":1884:1891  creator */\n  dup1\n    /* \"Campaign.sol\":1874:1881  manager */\n  0x00\n  dup1\n    /* \"Campaign.sol\":1874:1891  manager = creator */\n  0x0100\n  exp\n  dup2\n  sload\n  dup2\n  0xffffffffffffffffffffffffffffffffffffffff\n  mul\n  not\n  and\n  swap1\n  dup4\n  0xffffffffffffffffffffffffffffffffffffffff\n  and\n  mul\n  or\n  swap1\n  sstore\n  pop\n    /* \"Campaign.sol\":1923:1930  minimum */\n  dup2\n    /* \"Campaign.sol\":1901:1920  minimumContribution */\n  0x01\n    /* \"Campaign.sol\":1901:1930  minimumContribution = minimum */\n  dup2\n  swap1\n  sstore\n  pop\n    /* \"Campaign.sol\":1818:1937  constructor(uint256 minimum, address creator) {... */\n  pop\n  pop\n    /* \"Campaign.sol\":431:3887  contract Campaign {... */\n  jump(tag_6)\n    /* \"#utility.yul\":88:205   */\ntag_8:\n    /* \"#utility.yul\":197:198   */\n  0x00\n    /* \"#utility.yul\":194:195   */\n  dup1\n    /* \"#utility.yul\":187:199   */\n  revert\n    /* \"#utility.yul\":334:411   */\ntag_10:\n    /* \"#utility.yul\":371:378   */\n  0x00\n    /* \"#utility.yul\":400:405   */\n  dup2\n    /* \"#utility.yul\":389:405   */\n  swap1\n  pop\n    /* \"#utility.yul\":334:411   */\n  swap2\n  swap1\n  pop\n  jump\t// out\n    /* \"#utility.yul\":417:539   */\ntag_11:\n    /* \"#utility.yul\":490:514   */\n  tag_23\n    /* \"#utility.yul\":508:513   */\n  dup2\n    /* \"#utility.yul\":490:514   */\n  tag_10\n  jump\t// in\ntag_23:\n    /* \"#utility.yul\":483:488   */\n  dup2\n    /* \"#utility.yul\":480:515   */\n  eq\n    /* \"#utility.yul\":470:533   */\n  tag_24\n  jumpi\n    /* \"#utility.yul\":529:530   */\n  0x00\n    /* \"#utility.yul\":526:527   */\n  dup1\n    /* \"#utility.yul\":519:531   */\n  revert\n    /* \"#utility.yul\":470:533   */\ntag_24:\n    /* \"#utility.yul\":417:539   */\n  pop\n  jump\t// out\n    /* \"#utility.yul\":545:688   */\ntag_12:\n    /* \"#utility.yul\":602:607   */\n  0x00\n    /* \"#utility.yul\":633:639   */\n  dup2\n    /* \"#utility.yul\":627:640   */\n  mload\n    /* \"#utility.yul\":618:640   */\n  swap1\n  pop\n    /* \"#utility.yul\":649:682   */\n  tag_26\n    /* \"#utility.yul\":676:681   */\n  dup2\n    /* \"#utility.yul\":649:682   */\n  tag_11\n  jump\t// in\ntag_26:\n    /* \"#utility.yul\":545:688   */\n  swap3\n  swap2\n  pop\n  pop\n  jump\t// out\n    /* \"#utility.yul\":694:820   */\ntag_13:\n    /* \"#utility.yul\":731:738   */\n  0x00\n    /* \"#utility.yul\":771:813   */\n  0xffffffffffffffffffffffffffffffffffffffff\n    /* \"#utility.yul\":764:769   */\n  dup3\n    /* \"#utility.yul\":760:814   */\n  and\n    /* \"#utility.yul\":749:814   */\n  swap1\n  pop\n    /* \"#utility.yul\":694:820   */\n  swap2\n  swap1\n  pop\n  jump\t// out\n    /* \"#utility.yul\":826:922   */\ntag_14:\n    /* \"#utility.yul\":863:870   */\n  0x00\n    /* \"#utility.yul\":892:916   */\n  tag_29\n    /* \"#utility.yul\":910:915   */\n  dup3\n    /* \"#utility.yul\":892:916   */\n  tag_13\n  jump\t// in\ntag_29:\n    /* \"#utility.yul\":881:916   */\n  swap1\n  pop\n    /* \"#utility.yul\":826:922   */\n  swap2\n  swap1\n  pop\n  jump\t// out\n    /* \"#utility.yul\":928:1050   */\ntag_15:\n    /* \"#utility.yul\":1001:1025   */\n  tag_31\n    /* \"#utility.yul\":1019:1024   */\n  dup2\n    /* \"#utility.yul\":1001:1025   */\n  tag_14\n  jump\t// in\ntag_31:\n    /* \"#utility.yul\":994:999   */\n  dup2\n    /* \"#utility.yul\":991:1026   */\n  eq\n    /* \"#utility.yul\":981:1044   */\n  tag_32\n  jumpi\n    /* \"#utility.yul\":1040:1041   */\n  0x00\n    /* \"#utility.yul\":1037:1038   */\n  dup1\n    /* \"#utility.yul\":1030:1042   */\n  revert\n    /* \"#utility.yul\":981:1044   */\ntag_32:\n    /* \"#utility.yul\":928:1050   */\n  pop\n  jump\t// out\n    /* \"#utility.yul\":1056:1199   */\ntag_16:\n    /* \"#utility.yul\":1113:1118   */\n  0x00\n    /* \"#utility.yul\":1144:1150   */\n  dup2\n    /* \"#utility.yul\":1138:1151   */\n  mload\n    /* \"#utility.yul\":1129:1151   */\n  swap1\n  pop\n    /* \"#utility.yul\":1160:1193   */\n  tag_34\n    /* \"#utility.yul\":1187:1192   */\n  dup2\n    /* \"#utility.yul\":1160:1193   */\n  tag_15\n  jump\t// in\ntag_34:\n    /* \"#utility.yul\":1056:1199   */\n  swap3\n  swap2\n  pop\n  pop\n  jump\t// out\n    /* \"#utility.yul\":1205:1712   */\ntag_3:\n    /* \"#utility.yul\":1284:1290   */\n  0x00\n    /* \"#utility.yul\":1292:1298   */\n  dup1\n    /* \"#utility.yul\":1341:1343   */\n  0x40\n    /* \"#utility.yul\":1329:1338   */\n  dup4\n    /* \"#utility.yul\":1320:1327   */\n  dup6\n    /* \"#utility.yul\":1316:1339   */\n  sub\n    /* \"#utility.yul\":1312:1344   */\n  slt\n    /* \"#utility.yul\":1309:1428   */\n  iszero\n  tag_36\n  jumpi\n    /* \"#utility.yul\":1347:1426   */\n  tag_37\n  tag_8\n  jump\t// in\ntag_37:\n    /* \"#utility.yul\":1309:1428   */\ntag_36:\n    /* \"#utility.yul\":1467:1468   */\n  0x00\n    /* \"#utility.yul\":1492:1556   */\n  tag_38\n    /* \"#utility.yul\":1548:1555   */\n  dup6\n    /* \"#utility.yul\":1539:1545   */\n  dup3\n    /* \"#utility.yul\":1528:1537   */\n  dup7\n    /* \"#utility.yul\":1524:1546   */\n  add\n    /* \"#utility.yul\":1492:1556   */\n  tag_12\n  jump\t// in\ntag_38:\n    /* \"#utility.yul\":1482:1556   */\n  swap3\n  pop\n    /* \"#utility.yul\":1438:1566   */\n  pop\n    /* \"#utility.yul\":1605:1607   */\n  0x20\n    /* \"#utility.yul\":1631:1695   */\n  tag_39\n    /* \"#utility.yul\":1687:1694   */\n  dup6\n    /* \"#utility.yul\":1678:1684   */\n  dup3\n    /* \"#utility.yul\":1667:1676   */\n  dup7\n    /* \"#utility.yul\":1663:1685   */\n  add\n    /* \"#utility.yul\":1631:1695   */\n  tag_16\n  jump\t// in\ntag_39:\n    /* \"#utility.yul\":1621:1695   */\n  swap2\n  pop\n    /* \"#utility.yul\":1576:1705   */\n  pop\n    /* \"#utility.yul\":1205:1712   */\n  swap3\n  pop\n  swap3\n  swap1\n  pop\n  jump\t// out\n    /* \"Campaign.sol\":431:3887  contract Campaign {... */\ntag_6:\n  dataSize(sub_0)\n  dup1\n  dataOffset(sub_0)\n  0x00\n  codecopy\n  0x00\n  return\nstop\n\nsub_0: assembly {\n        /* \"Campaign.sol\":431:3887  contract Campaign {... */\n      mstore(0x40, 0x80)\n      jumpi(tag_1, lt(calldatasize, 0x04))\n      shr(0xe0, calldataload(0x00))\n      dup1\n      0x82fde093\n      gt\n      tag_12\n      jumpi\n      dup1\n      0x82fde093\n      eq\n      tag_7\n      jumpi\n      dup1\n      0x8a9cfd55\n      eq\n      tag_8\n      jumpi\n      dup1\n      0x937e09b1\n      eq\n      tag_9\n      jumpi\n      dup1\n      0xd7bb99ba\n      eq\n      tag_10\n      jumpi\n      dup1\n      0xd7d1bbdb\n      eq\n      tag_11\n      jumpi\n      jump(tag_1)\n    tag_12:\n      dup1\n      0x03441006\n      eq\n      tag_2\n      jumpi\n      dup1\n      0x0a144391\n      eq\n      tag_3\n      jumpi\n      dup1\n      0x3410452a\n      eq\n      tag_4\n      jumpi\n      dup1\n      0x481c6a75\n      eq\n      tag_5\n      jumpi\n      dup1\n      0x81d12c58\n      eq\n      tag_6\n      jumpi\n    tag_1:\n      0x00\n      dup1\n      revert\n        /* \"Campaign.sol\":3338:3781  function finalizeRequest(uint256 requestIndex) public onlyManager {... */\n    tag_2:\n      callvalue\n      dup1\n      iszero\n      tag_13\n      jumpi\n      0x00\n      dup1\n      revert\n    tag_13:\n      pop\n      tag_14\n      0x04\n      dup1\n      calldatasize\n      sub\n      dup2\n      add\n      swap1\n      tag_15\n      swap2\n      swap1\n      tag_16\n      jump\t// in\n    tag_15:\n      tag_17\n      jump\t// in\n    tag_14:\n      stop\n        /* \"Campaign.sol\":735:776  mapping(address => bool) public approvers */\n    tag_3:\n      callvalue\n      dup1\n      iszero\n      tag_18\n      jumpi\n      0x00\n      dup1\n      revert\n    tag_18:\n      pop\n      tag_19\n      0x04\n      dup1\n      calldatasize\n      sub\n      dup2\n      add\n      swap1\n      tag_20\n      swap2\n      swap1\n      tag_21\n      jump\t// in\n    tag_20:\n      tag_22\n      jump\t// in\n    tag_19:\n      mload(0x40)\n      tag_23\n      swap2\n      swap1\n      tag_24\n      jump\t// in\n    tag_23:\n      mload(0x40)\n      dup1\n      swap2\n      sub\n      swap1\n      return\n        /* \"Campaign.sol\":3787:3885  function getRequestsCount() public view returns (uint256) {... */\n    tag_4:\n      callvalue\n      dup1\n      iszero\n      tag_25\n      jumpi\n      0x00\n      dup1\n      revert\n    tag_25:\n      pop\n      tag_26\n      tag_27\n      jump\t// in\n    tag_26:\n      mload(0x40)\n      tag_28\n      swap2\n      swap1\n      tag_29\n      jump\t// in\n    tag_28:\n      mload(0x40)\n      dup1\n      swap2\n      sub\n      swap1\n      return\n        /* \"Campaign.sol\":667:689  address public manager */\n    tag_5:\n      callvalue\n      dup1\n      iszero\n      tag_30\n      jumpi\n      0x00\n      dup1\n      revert\n    tag_30:\n      pop\n      tag_31\n      tag_32\n      jump\t// in\n    tag_31:\n      mload(0x40)\n      tag_33\n      swap2\n      swap1\n      tag_34\n      jump\t// in\n    tag_33:\n      mload(0x40)\n      dup1\n      swap2\n      sub\n      swap1\n      return\n        /* \"Campaign.sol\":1768:1811  mapping(uint256 => Request) public requests */\n    tag_6:\n      callvalue\n      dup1\n      iszero\n      tag_35\n      jumpi\n      0x00\n      dup1\n      revert\n    tag_35:\n      pop\n      tag_36\n      0x04\n      dup1\n      calldatasize\n      sub\n      dup2\n      add\n      swap1\n      tag_37\n      swap2\n      swap1\n      tag_16\n      jump\t// in\n    tag_37:\n      tag_38\n      jump\t// in\n    tag_36:\n      mload(0x40)\n      tag_39\n      swap6\n      swap5\n      swap4\n      swap3\n      swap2\n      swap1\n      tag_40\n      jump\t// in\n    tag_39:\n      mload(0x40)\n      dup1\n      swap2\n      sub\n      swap1\n      return\n        /* \"Campaign.sol\":782:811  uint256 public approversCount */\n    tag_7:\n      callvalue\n      dup1\n      iszero\n      tag_41\n      jumpi\n      0x00\n      dup1\n      revert\n    tag_41:\n      pop\n      tag_42\n      tag_43\n      jump\t// in\n    tag_42:\n      mload(0x40)\n      tag_44\n      swap2\n      swap1\n      tag_29\n      jump\t// in\n    tag_44:\n      mload(0x40)\n      dup1\n      swap2\n      sub\n      swap1\n      return\n        /* \"Campaign.sol\":2438:2862  function createRequest(... */\n    tag_8:\n      callvalue\n      dup1\n      iszero\n      tag_45\n      jumpi\n      0x00\n      dup1\n      revert\n    tag_45:\n      pop\n      tag_46\n      0x04\n      dup1\n      calldatasize\n      sub\n      dup2\n      add\n      swap1\n      tag_47\n      swap2\n      swap1\n      tag_48\n      jump\t// in\n    tag_47:\n      tag_49\n      jump\t// in\n    tag_46:\n      stop\n        /* \"Campaign.sol\":695:729  uint256 public minimumContribution */\n    tag_9:\n      callvalue\n      dup1\n      iszero\n      tag_50\n      jumpi\n      0x00\n      dup1\n      revert\n    tag_50:\n      pop\n      tag_51\n      tag_52\n      jump\t// in\n    tag_51:\n      mload(0x40)\n      tag_53\n      swap2\n      swap1\n      tag_29\n      jump\t// in\n    tag_53:\n      mload(0x40)\n      dup1\n      swap2\n      sub\n      swap1\n      return\n        /* \"Campaign.sol\":2117:2432  function contribute() public payable {... */\n    tag_10:\n      tag_54\n      tag_55\n      jump\t// in\n    tag_54:\n      stop\n        /* \"Campaign.sol\":2868:3332  function approveRequest(uint256 requestIndex) public {... */\n    tag_11:\n      callvalue\n      dup1\n      iszero\n      tag_56\n      jumpi\n      0x00\n      dup1\n      revert\n    tag_56:\n      pop\n      tag_57\n      0x04\n      dup1\n      calldatasize\n      sub\n      dup2\n      add\n      swap1\n      tag_58\n      swap2\n      swap1\n      tag_16\n      jump\t// in\n    tag_58:\n      tag_59\n      jump\t// in\n    tag_57:\n      stop\n        /* \"Campaign.sol\":3338:3781  function finalizeRequest(uint256 requestIndex) public onlyManager {... */\n    tag_17:\n        /* \"Campaign.sol\":2011:2018  manager */\n      0x00\n      dup1\n      sload\n      swap1\n      0x0100\n      exp\n      swap1\n      div\n      0xffffffffffffffffffffffffffffffffffffffff\n      and\n        /* \"Campaign.sol\":1997:2018  msg.sender == manager */\n      0xffffffffffffffffffffffffffffffffffffffff\n      and\n        /* \"Campaign.sol\":1997:2007  msg.sender */\n      caller\n        /* \"Campaign.sol\":1997:2018  msg.sender == manager */\n      0xffffffffffffffffffffffffffffffffffffffff\n      and\n      eq\n        /* \"Campaign.sol\":1976:2093  require(... */\n      tag_61\n      jumpi\n      mload(0x40)\n      0x08c379a000000000000000000000000000000000000000000000000000000000\n      dup2\n      mstore\n      0x04\n      add\n      tag_62\n      swap1\n      tag_63\n      jump\t// in\n    tag_62:\n      mload(0x40)\n      dup1\n      swap2\n      sub\n      swap1\n      revert\n    tag_61:\n        /* \"Campaign.sol\":3414:3437  Request storage request */\n      0x00\n        /* \"Campaign.sol\":3440:3448  requests */\n      0x05\n        /* \"Campaign.sol\":3440:3462  requests[requestIndex] */\n      0x00\n        /* \"Campaign.sol\":3449:3461  requestIndex */\n      dup4\n        /* \"Campaign.sol\":3440:3462  requests[requestIndex] */\n      dup2\n      mstore\n      0x20\n      add\n      swap1\n      dup2\n      mstore\n      0x20\n      add\n      0x00\n      keccak256\n        /* \"Campaign.sol\":3414:3462  Request storage request = requests[requestIndex] */\n      swap1\n      pop\n        /* \"Campaign.sol\":3535:3536  2 */\n      0x02\n        /* \"Campaign.sol\":3518:3532  approversCount */\n      sload(0x03)\n        /* \"Campaign.sol\":3518:3536  approversCount / 2 */\n      tag_65\n      swap2\n      swap1\n      tag_66\n      jump\t// in\n    tag_65:\n        /* \"Campaign.sol\":3493:3500  request */\n      dup2\n        /* \"Campaign.sol\":3493:3514  request.approvalCount */\n      0x03\n      add\n      sload\n        /* \"Campaign.sol\":3493:3537  request.approvalCount > (approversCount / 2) */\n      gt\n        /* \"Campaign.sol\":3472:3623  require(... */\n      tag_67\n      jumpi\n      mload(0x40)\n      0x08c379a000000000000000000000000000000000000000000000000000000000\n      dup2\n      mstore\n      0x04\n      add\n      tag_68\n      swap1\n      tag_69\n      jump\t// in\n    tag_68:\n      mload(0x40)\n      dup1\n      swap2\n      sub\n      swap1\n      revert\n    tag_67:\n        /* \"Campaign.sol\":3643:3650  request */\n      dup1\n        /* \"Campaign.sol\":3643:3659  request.complete */\n      0x02\n      add\n      0x14\n      swap1\n      sload\n      swap1\n      0x0100\n      exp\n      swap1\n      div\n      0xff\n      and\n        /* \"Campaign.sol\":3641:3660  !(request.complete) */\n      iszero\n        /* \"Campaign.sol\":3633:3690  require(!(request.complete), \"Request already completed\") */\n      tag_70\n      jumpi\n      mload(0x40)\n      0x08c379a000000000000000000000000000000000000000000000000000000000\n      dup2\n      mstore\n      0x04\n      add\n      tag_71\n      swap1\n      tag_72\n      jump\t// in\n    tag_71:\n      mload(0x40)\n      dup1\n      swap2\n      sub\n      swap1\n      revert\n    tag_70:\n        /* \"Campaign.sol\":3700:3707  request */\n      dup1\n        /* \"Campaign.sol\":3700:3717  request.recipient */\n      0x02\n      add\n      0x00\n      swap1\n      sload\n      swap1\n      0x0100\n      exp\n      swap1\n      div\n      0xffffffffffffffffffffffffffffffffffffffff\n      and\n        /* \"Campaign.sol\":3700:3726  request.recipient.transfer */\n      0xffffffffffffffffffffffffffffffffffffffff\n      and\n        /* \"Campaign.sol\":3700:3741  request.recipient.transfer(request.value) */\n      0x08fc\n        /* \"Campaign.sol\":3727:3734  request */\n      dup3\n        /* \"Campaign.sol\":3727:3740  request.value */\n      0x01\n      add\n      sload\n        /* \"Campaign.sol\":3700:3741  request.recipient.transfer(request.value) */\n      swap1\n      dup2\n      iszero\n      mul\n      swap1\n      mload(0x40)\n      0x00\n      mload(0x40)\n      dup1\n      dup4\n      sub\n      dup2\n      dup6\n      dup9\n      dup9\n      call\n      swap4\n      pop\n      pop\n      pop\n      pop\n      iszero\n      dup1\n      iszero\n      tag_74\n      jumpi\n      returndatasize\n      0x00\n      dup1\n      returndatacopy\n      revert(0x00, returndatasize)\n    tag_74:\n      pop\n        /* \"Campaign.sol\":3770:3774  true */\n      0x01\n        /* \"Campaign.sol\":3751:3758  request */\n      dup2\n        /* \"Campaign.sol\":3751:3767  request.complete */\n      0x02\n      add\n      0x14\n        /* \"Campaign.sol\":3751:3774  request.complete = true */\n      0x0100\n      exp\n      dup2\n      sload\n      dup2\n      0xff\n      mul\n      not\n      and\n      swap1\n      dup4\n      iszero\n      iszero\n      mul\n      or\n      swap1\n      sstore\n      pop\n        /* \"Campaign.sol\":3404:3781  {... */\n      pop\n        /* \"Campaign.sol\":3338:3781  function finalizeRequest(uint256 requestIndex) public onlyManager {... */\n      pop\n      jump\t// out\n        /* \"Campaign.sol\":735:776  mapping(address => bool) public approvers */\n    tag_22:\n      mstore(0x20, 0x02)\n      dup1\n      0x00\n      mstore\n      keccak256(0x00, 0x40)\n      0x00\n      swap2\n      pop\n      sload\n      swap1\n      0x0100\n      exp\n      swap1\n      div\n      0xff\n      and\n      dup2\n      jump\t// out\n        /* \"Campaign.sol\":3787:3885  function getRequestsCount() public view returns (uint256) {... */\n    tag_27:\n        /* \"Campaign.sol\":3836:3843  uint256 */\n      0x00\n        /* \"Campaign.sol\":3862:3878  numberOfRequests */\n      sload(0x04)\n        /* \"Campaign.sol\":3855:3878  return numberOfRequests */\n      swap1\n      pop\n        /* \"Campaign.sol\":3787:3885  function getRequestsCount() public view returns (uint256) {... */\n      swap1\n      jump\t// out\n        /* \"Campaign.sol\":667:689  address public manager */\n    tag_32:\n      0x00\n      dup1\n      sload\n      swap1\n      0x0100\n      exp\n      swap1\n      div\n      0xffffffffffffffffffffffffffffffffffffffff\n      and\n      dup2\n      jump\t// out\n        /* \"Campaign.sol\":1768:1811  mapping(uint256 => Request) public requests */\n    tag_38:\n      mstore(0x20, 0x05)\n      dup1\n      0x00\n      mstore\n      keccak256(0x00, 0x40)\n      0x00\n      swap2\n      pop\n      swap1\n      pop\n      dup1\n      0x00\n      add\n      dup1\n      sload\n      tag_76\n      swap1\n      tag_77\n      jump\t// in\n    tag_76:\n      dup1\n      0x1f\n      add\n      0x20\n      dup1\n      swap2\n      div\n      mul\n      0x20\n      add\n      mload(0x40)\n      swap1\n      dup2\n      add\n      0x40\n      mstore\n      dup1\n      swap3\n      swap2\n      swap1\n      dup2\n      dup2\n      mstore\n      0x20\n      add\n      dup3\n      dup1\n      sload\n      tag_78\n      swap1\n      tag_77\n      jump\t// in\n    tag_78:\n      dup1\n      iszero\n      tag_79\n      jumpi\n      dup1\n      0x1f\n      lt\n      tag_80\n      jumpi\n      0x0100\n      dup1\n      dup4\n      sload\n      div\n      mul\n      dup4\n      mstore\n      swap2\n      0x20\n      add\n      swap2\n      jump(tag_79)\n    tag_80:\n      dup3\n      add\n      swap2\n      swap1\n      0x00\n      mstore\n      keccak256(0x00, 0x20)\n      swap1\n    tag_81:\n      dup2\n      sload\n      dup2\n      mstore\n      swap1\n      0x01\n      add\n      swap1\n      0x20\n      add\n      dup1\n      dup4\n      gt\n      tag_81\n      jumpi\n      dup3\n      swap1\n      sub\n      0x1f\n      and\n      dup3\n      add\n      swap2\n    tag_79:\n      pop\n      pop\n      pop\n      pop\n      pop\n      swap1\n      dup1\n      0x01\n      add\n      sload\n      swap1\n      dup1\n      0x02\n      add\n      0x00\n      swap1\n      sload\n      swap1\n      0x0100\n      exp\n      swap1\n      div\n      0xffffffffffffffffffffffffffffffffffffffff\n      and\n      swap1\n      dup1\n      0x02\n      add\n      0x14\n      swap1\n      sload\n      swap1\n      0x0100\n      exp\n      swap1\n      div\n      0xff\n      and\n      swap1\n      dup1\n      0x03\n      add\n      sload\n      swap1\n      pop\n      dup6\n      jump\t// out\n        /* \"Campaign.sol\":782:811  uint256 public approversCount */\n    tag_43:\n      sload(0x03)\n      dup2\n      jump\t// out\n        /* \"Campaign.sol\":2438:2862  function createRequest(... */\n    tag_49:\n        /* \"Campaign.sol\":2011:2018  manager */\n      0x00\n      dup1\n      sload\n      swap1\n      0x0100\n      exp\n      swap1\n      div\n      0xffffffffffffffffffffffffffffffffffffffff\n      and\n        /* \"Campaign.sol\":1997:2018  msg.sender == manager */\n      0xffffffffffffffffffffffffffffffffffffffff\n      and\n        /* \"Campaign.sol\":1997:2007  msg.sender */\n      caller\n        /* \"Campaign.sol\":1997:2018  msg.sender == manager */\n      0xffffffffffffffffffffffffffffffffffffffff\n      and\n      eq\n        /* \"Campaign.sol\":1976:2093  require(... */\n      tag_83\n      jumpi\n      mload(0x40)\n      0x08c379a000000000000000000000000000000000000000000000000000000000\n      dup2\n      mstore\n      0x04\n      add\n      tag_84\n      swap1\n      tag_63\n      jump\t// in\n    tag_84:\n      mload(0x40)\n      dup1\n      swap2\n      sub\n      swap1\n      revert\n    tag_83:\n        /* \"Campaign.sol\":2589:2617  Request storage requestCount */\n      0x00\n        /* \"Campaign.sol\":2620:2628  requests */\n      0x05\n        /* \"Campaign.sol\":2620:2648  requests[numberOfRequests++] */\n      0x00\n        /* \"Campaign.sol\":2629:2645  numberOfRequests */\n      0x04\n      0x00\n        /* \"Campaign.sol\":2629:2647  numberOfRequests++ */\n      dup2\n      sload\n      dup1\n      swap3\n      swap2\n      swap1\n      tag_86\n      swap1\n      tag_87\n      jump\t// in\n    tag_86:\n      swap2\n      swap1\n      pop\n      sstore\n        /* \"Campaign.sol\":2620:2648  requests[numberOfRequests++] */\n      dup2\n      mstore\n      0x20\n      add\n      swap1\n      dup2\n      mstore\n      0x20\n      add\n      0x00\n      keccak256\n        /* \"Campaign.sol\":2589:2648  Request storage requestCount = requests[numberOfRequests++] */\n      swap1\n      pop\n        /* \"Campaign.sol\":2685:2696  description */\n      dup4\n        /* \"Campaign.sol\":2658:2670  requestCount */\n      dup2\n        /* \"Campaign.sol\":2658:2682  requestCount.description */\n      0x00\n      add\n        /* \"Campaign.sol\":2658:2696  requestCount.description = description */\n      swap1\n      dup1\n      mload\n      swap1\n      0x20\n      add\n      swap1\n      tag_88\n      swap3\n      swap2\n      swap1\n      tag_89\n      jump\t// in\n    tag_88:\n      pop\n        /* \"Campaign.sol\":2727:2732  value */\n      dup3\n        /* \"Campaign.sol\":2706:2718  requestCount */\n      dup2\n        /* \"Campaign.sol\":2706:2724  requestCount.value */\n      0x01\n      add\n        /* \"Campaign.sol\":2706:2732  requestCount.value = value */\n      dup2\n      swap1\n      sstore\n      pop\n        /* \"Campaign.sol\":2767:2776  recipient */\n      dup2\n        /* \"Campaign.sol\":2742:2754  requestCount */\n      dup2\n        /* \"Campaign.sol\":2742:2764  requestCount.recipient */\n      0x02\n      add\n      0x00\n        /* \"Campaign.sol\":2742:2776  requestCount.recipient = recipient */\n      0x0100\n      exp\n      dup2\n      sload\n      dup2\n      0xffffffffffffffffffffffffffffffffffffffff\n      mul\n      not\n      and\n      swap1\n      dup4\n      0xffffffffffffffffffffffffffffffffffffffff\n      and\n      mul\n      or\n      swap1\n      sstore\n      pop\n        /* \"Campaign.sol\":2810:2815  false */\n      0x00\n        /* \"Campaign.sol\":2786:2798  requestCount */\n      dup2\n        /* \"Campaign.sol\":2786:2807  requestCount.complete */\n      0x02\n      add\n      0x14\n        /* \"Campaign.sol\":2786:2815  requestCount.complete = false */\n      0x0100\n      exp\n      dup2\n      sload\n      dup2\n      0xff\n      mul\n      not\n      and\n      swap1\n      dup4\n      iszero\n      iszero\n      mul\n      or\n      swap1\n      sstore\n      pop\n        /* \"Campaign.sol\":2854:2855  0 */\n      0x00\n        /* \"Campaign.sol\":2825:2837  requestCount */\n      dup2\n        /* \"Campaign.sol\":2825:2851  requestCount.approvalCount */\n      0x03\n      add\n        /* \"Campaign.sol\":2825:2855  requestCount.approvalCount = 0 */\n      dup2\n      swap1\n      sstore\n      pop\n        /* \"Campaign.sol\":2579:2862  {... */\n      pop\n        /* \"Campaign.sol\":2438:2862  function createRequest(... */\n      pop\n      pop\n      pop\n      jump\t// out\n        /* \"Campaign.sol\":695:729  uint256 public minimumContribution */\n    tag_52:\n      sload(0x01)\n      dup2\n      jump\t// out\n        /* \"Campaign.sol\":2117:2432  function contribute() public payable {... */\n    tag_55:\n        /* \"Campaign.sol\":2198:2217  minimumContribution */\n      sload(0x01)\n        /* \"Campaign.sol\":2185:2194  msg.value */\n      callvalue\n        /* \"Campaign.sol\":2185:2217  msg.value >= minimumContribution */\n      lt\n      iszero\n        /* \"Campaign.sol\":2164:2279  require(... */\n      tag_91\n      jumpi\n      mload(0x40)\n      0x08c379a000000000000000000000000000000000000000000000000000000000\n      dup2\n      mstore\n      0x04\n      add\n      tag_92\n      swap1\n      tag_93\n      jump\t// in\n    tag_92:\n      mload(0x40)\n      dup1\n      swap2\n      sub\n      swap1\n      revert\n    tag_91:\n        /* \"Campaign.sol\":2299:2308  approvers */\n      0x02\n        /* \"Campaign.sol\":2299:2320  approvers[msg.sender] */\n      0x00\n        /* \"Campaign.sol\":2309:2319  msg.sender */\n      caller\n        /* \"Campaign.sol\":2299:2320  approvers[msg.sender] */\n      0xffffffffffffffffffffffffffffffffffffffff\n      and\n      0xffffffffffffffffffffffffffffffffffffffff\n      and\n      dup2\n      mstore\n      0x20\n      add\n      swap1\n      dup2\n      mstore\n      0x20\n      add\n      0x00\n      keccak256\n      0x00\n      swap1\n      sload\n      swap1\n      0x0100\n      exp\n      swap1\n      div\n      0xff\n      and\n        /* \"Campaign.sol\":2298:2320  !approvers[msg.sender] */\n      iszero\n        /* \"Campaign.sol\":2290:2361  require(!approvers[msg.sender], \"You already donated to this campaign\") */\n      tag_94\n      jumpi\n      mload(0x40)\n      0x08c379a000000000000000000000000000000000000000000000000000000000\n      dup2\n      mstore\n      0x04\n      add\n      tag_95\n      swap1\n      tag_96\n      jump\t// in\n    tag_95:\n      mload(0x40)\n      dup1\n      swap2\n      sub\n      swap1\n      revert\n    tag_94:\n        /* \"Campaign.sol\":2395:2399  true */\n      0x01\n        /* \"Campaign.sol\":2371:2380  approvers */\n      0x02\n        /* \"Campaign.sol\":2371:2392  approvers[msg.sender] */\n      0x00\n        /* \"Campaign.sol\":2381:2391  msg.sender */\n      caller\n        /* \"Campaign.sol\":2371:2392  approvers[msg.sender] */\n      0xffffffffffffffffffffffffffffffffffffffff\n      and\n      0xffffffffffffffffffffffffffffffffffffffff\n      and\n      dup2\n      mstore\n      0x20\n      add\n      swap1\n      dup2\n      mstore\n      0x20\n      add\n      0x00\n      keccak256\n      0x00\n        /* \"Campaign.sol\":2371:2399  approvers[msg.sender] = true */\n      0x0100\n      exp\n      dup2\n      sload\n      dup2\n      0xff\n      mul\n      not\n      and\n      swap1\n      dup4\n      iszero\n      iszero\n      mul\n      or\n      swap1\n      sstore\n      pop\n        /* \"Campaign.sol\":2409:2423  approversCount */\n      0x03\n      0x00\n        /* \"Campaign.sol\":2409:2425  approversCount++ */\n      dup2\n      sload\n      dup1\n      swap3\n      swap2\n      swap1\n      tag_97\n      swap1\n      tag_87\n      jump\t// in\n    tag_97:\n      swap2\n      swap1\n      pop\n      sstore\n      pop\n        /* \"Campaign.sol\":2117:2432  function contribute() public payable {... */\n      jump\t// out\n        /* \"Campaign.sol\":2868:3332  function approveRequest(uint256 requestIndex) public {... */\n    tag_59:\n        /* \"Campaign.sol\":2931:2954  Request storage request */\n      0x00\n        /* \"Campaign.sol\":2957:2965  requests */\n      0x05\n        /* \"Campaign.sol\":2957:2979  requests[requestIndex] */\n      0x00\n        /* \"Campaign.sol\":2966:2978  requestIndex */\n      dup4\n        /* \"Campaign.sol\":2957:2979  requests[requestIndex] */\n      dup2\n      mstore\n      0x20\n      add\n      swap1\n      dup2\n      mstore\n      0x20\n      add\n      0x00\n      keccak256\n        /* \"Campaign.sol\":2931:2979  Request storage request = requests[requestIndex] */\n      swap1\n      pop\n        /* \"Campaign.sol\":3010:3019  approvers */\n      0x02\n        /* \"Campaign.sol\":3010:3031  approvers[msg.sender] */\n      0x00\n        /* \"Campaign.sol\":3020:3030  msg.sender */\n      caller\n        /* \"Campaign.sol\":3010:3031  approvers[msg.sender] */\n      0xffffffffffffffffffffffffffffffffffffffff\n      and\n      0xffffffffffffffffffffffffffffffffffffffff\n      and\n      dup2\n      mstore\n      0x20\n      add\n      swap1\n      dup2\n      mstore\n      0x20\n      add\n      0x00\n      keccak256\n      0x00\n      swap1\n      sload\n      swap1\n      0x0100\n      exp\n      swap1\n      div\n      0xff\n      and\n        /* \"Campaign.sol\":2989:3113  require(... */\n      tag_99\n      jumpi\n      mload(0x40)\n      0x08c379a000000000000000000000000000000000000000000000000000000000\n      dup2\n      mstore\n      0x04\n      add\n      tag_100\n      swap1\n      tag_101\n      jump\t// in\n    tag_100:\n      mload(0x40)\n      dup1\n      swap2\n      sub\n      swap1\n      revert\n    tag_99:\n        /* \"Campaign.sol\":3145:3152  request */\n      dup1\n        /* \"Campaign.sol\":3145:3162  request.approvals */\n      0x04\n      add\n        /* \"Campaign.sol\":3145:3174  request.approvals[msg.sender] */\n      0x00\n        /* \"Campaign.sol\":3163:3173  msg.sender */\n      caller\n        /* \"Campaign.sol\":3145:3174  request.approvals[msg.sender] */\n      0xffffffffffffffffffffffffffffffffffffffff\n      and\n      0xffffffffffffffffffffffffffffffffffffffff\n      and\n      dup2\n      mstore\n      0x20\n      add\n      swap1\n      dup2\n      mstore\n      0x20\n      add\n      0x00\n      keccak256\n      0x00\n      swap1\n      sload\n      swap1\n      0x0100\n      exp\n      swap1\n      div\n      0xff\n      and\n        /* \"Campaign.sol\":3144:3174  !request.approvals[msg.sender] */\n      iszero\n        /* \"Campaign.sol\":3123:3246  require(... */\n      tag_102\n      jumpi\n      mload(0x40)\n      0x08c379a000000000000000000000000000000000000000000000000000000000\n      dup2\n      mstore\n      0x04\n      add\n      tag_103\n      swap1\n      tag_104\n      jump\t// in\n    tag_103:\n      mload(0x40)\n      dup1\n      swap2\n      sub\n      swap1\n      revert\n    tag_102:\n        /* \"Campaign.sol\":3288:3292  true */\n      0x01\n        /* \"Campaign.sol\":3256:3263  request */\n      dup2\n        /* \"Campaign.sol\":3256:3273  request.approvals */\n      0x04\n      add\n        /* \"Campaign.sol\":3256:3285  request.approvals[msg.sender] */\n      0x00\n        /* \"Campaign.sol\":3274:3284  msg.sender */\n      caller\n        /* \"Campaign.sol\":3256:3285  request.approvals[msg.sender] */\n      0xffffffffffffffffffffffffffffffffffffffff\n      and\n      0xffffffffffffffffffffffffffffffffffffffff\n      and\n      dup2\n      mstore\n      0x20\n      add\n      swap1\n      dup2\n      mstore\n      0x20\n      add\n      0x00\n      keccak256\n      0x00\n        /* \"Campaign.sol\":3256:3292  request.approvals[msg.sender] = true */\n      0x0100\n      exp\n      dup2\n      sload\n      dup2\n      0xff\n      mul\n      not\n      and\n      swap1\n      dup4\n      iszero\n      iszero\n      mul\n      or\n      swap1\n      sstore\n      pop\n        /* \"Campaign.sol\":3302:3309  request */\n      dup1\n        /* \"Campaign.sol\":3302:3323  request.approvalCount */\n      0x03\n      add\n      0x00\n        /* \"Campaign.sol\":3302:3325  request.approvalCount++ */\n      dup2\n      sload\n      dup1\n      swap3\n      swap2\n      swap1\n      tag_105\n      swap1\n      tag_87\n      jump\t// in\n    tag_105:\n      swap2\n      swap1\n      pop\n      sstore\n      pop\n        /* \"Campaign.sol\":2921:3332  {... */\n      pop\n        /* \"Campaign.sol\":2868:3332  function approveRequest(uint256 requestIndex) public {... */\n      pop\n      jump\t// out\n    tag_89:\n      dup3\n      dup1\n      sload\n      tag_106\n      swap1\n      tag_77\n      jump\t// in\n    tag_106:\n      swap1\n      0x00\n      mstore\n      keccak256(0x00, 0x20)\n      swap1\n      0x1f\n      add\n      0x20\n      swap1\n      div\n      dup2\n      add\n      swap3\n      dup3\n      tag_108\n      jumpi\n      0x00\n      dup6\n      sstore\n      jump(tag_107)\n    tag_108:\n      dup3\n      0x1f\n      lt\n      tag_109\n      jumpi\n      dup1\n      mload\n      not(0xff)\n      and\n      dup4\n      dup1\n      add\n      or\n      dup6\n      sstore\n      jump(tag_107)\n    tag_109:\n      dup3\n      dup1\n      add\n      0x01\n      add\n      dup6\n      sstore\n      dup3\n      iszero\n      tag_107\n      jumpi\n      swap2\n      dup3\n      add\n    tag_110:\n      dup3\n      dup2\n      gt\n      iszero\n      tag_111\n      jumpi\n      dup3\n      mload\n      dup3\n      sstore\n      swap2\n      0x20\n      add\n      swap2\n      swap1\n      0x01\n      add\n      swap1\n      jump(tag_110)\n    tag_111:\n    tag_107:\n      pop\n      swap1\n      pop\n      tag_112\n      swap2\n      swap1\n      tag_113\n      jump\t// in\n    tag_112:\n      pop\n      swap1\n      jump\t// out\n    tag_113:\n    tag_114:\n      dup1\n      dup3\n      gt\n      iszero\n      tag_115\n      jumpi\n      0x00\n      dup2\n      0x00\n      swap1\n      sstore\n      pop\n      0x01\n      add\n      jump(tag_114)\n    tag_115:\n      pop\n      swap1\n      jump\t// out\n        /* \"#utility.yul\":7:82   */\n    tag_116:\n        /* \"#utility.yul\":40:46   */\n      0x00\n        /* \"#utility.yul\":73:75   */\n      0x40\n        /* \"#utility.yul\":67:76   */\n      mload\n        /* \"#utility.yul\":57:76   */\n      swap1\n      pop\n        /* \"#utility.yul\":7:82   */\n      swap1\n      jump\t// out\n        /* \"#utility.yul\":88:205   */\n    tag_117:\n        /* \"#utility.yul\":197:198   */\n      0x00\n        /* \"#utility.yul\":194:195   */\n      dup1\n        /* \"#utility.yul\":187:199   */\n      revert\n        /* \"#utility.yul\":211:328   */\n    tag_118:\n        /* \"#utility.yul\":320:321   */\n      0x00\n        /* \"#utility.yul\":317:318   */\n      dup1\n        /* \"#utility.yul\":310:322   */\n      revert\n        /* \"#utility.yul\":334:411   */\n    tag_119:\n        /* \"#utility.yul\":371:378   */\n      0x00\n        /* \"#utility.yul\":400:405   */\n      dup2\n        /* \"#utility.yul\":389:405   */\n      swap1\n      pop\n        /* \"#utility.yul\":334:411   */\n      swap2\n      swap1\n      pop\n      jump\t// out\n        /* \"#utility.yul\":417:539   */\n    tag_120:\n        /* \"#utility.yul\":490:514   */\n      tag_171\n        /* \"#utility.yul\":508:513   */\n      dup2\n        /* \"#utility.yul\":490:514   */\n      tag_119\n      jump\t// in\n    tag_171:\n        /* \"#utility.yul\":483:488   */\n      dup2\n        /* \"#utility.yul\":480:515   */\n      eq\n        /* \"#utility.yul\":470:533   */\n      tag_172\n      jumpi\n        /* \"#utility.yul\":529:530   */\n      0x00\n        /* \"#utility.yul\":526:527   */\n      dup1\n        /* \"#utility.yul\":519:531   */\n      revert\n        /* \"#utility.yul\":470:533   */\n    tag_172:\n        /* \"#utility.yul\":417:539   */\n      pop\n      jump\t// out\n        /* \"#utility.yul\":545:684   */\n    tag_121:\n        /* \"#utility.yul\":591:596   */\n      0x00\n        /* \"#utility.yul\":629:635   */\n      dup2\n        /* \"#utility.yul\":616:636   */\n      calldataload\n        /* \"#utility.yul\":607:636   */\n      swap1\n      pop\n        /* \"#utility.yul\":645:678   */\n      tag_174\n        /* \"#utility.yul\":672:677   */\n      dup2\n        /* \"#utility.yul\":645:678   */\n      tag_120\n      jump\t// in\n    tag_174:\n        /* \"#utility.yul\":545:684   */\n      swap3\n      swap2\n      pop\n      pop\n      jump\t// out\n        /* \"#utility.yul\":690:1019   */\n    tag_16:\n        /* \"#utility.yul\":749:755   */\n      0x00\n        /* \"#utility.yul\":798:800   */\n      0x20\n        /* \"#utility.yul\":786:795   */\n      dup3\n        /* \"#utility.yul\":777:784   */\n      dup5\n        /* \"#utility.yul\":773:796   */\n      sub\n        /* \"#utility.yul\":769:801   */\n      slt\n        /* \"#utility.yul\":766:885   */\n      iszero\n      tag_176\n      jumpi\n        /* \"#utility.yul\":804:883   */\n      tag_177\n      tag_117\n      jump\t// in\n    tag_177:\n        /* \"#utility.yul\":766:885   */\n    tag_176:\n        /* \"#utility.yul\":924:925   */\n      0x00\n        /* \"#utility.yul\":949:1002   */\n      tag_178\n        /* \"#utility.yul\":994:1001   */\n      dup5\n        /* \"#utility.yul\":985:991   */\n      dup3\n        /* \"#utility.yul\":974:983   */\n      dup6\n        /* \"#utility.yul\":970:992   */\n      add\n        /* \"#utility.yul\":949:1002   */\n      tag_121\n      jump\t// in\n    tag_178:\n        /* \"#utility.yul\":939:1002   */\n      swap2\n      pop\n        /* \"#utility.yul\":895:1012   */\n      pop\n        /* \"#utility.yul\":690:1019   */\n      swap3\n      swap2\n      pop\n      pop\n      jump\t// out\n        /* \"#utility.yul\":1025:1151   */\n    tag_122:\n        /* \"#utility.yul\":1062:1069   */\n      0x00\n        /* \"#utility.yul\":1102:1144   */\n      0xffffffffffffffffffffffffffffffffffffffff\n        /* \"#utility.yul\":1095:1100   */\n      dup3\n        /* \"#utility.yul\":1091:1145   */\n      and\n        /* \"#utility.yul\":1080:1145   */\n      swap1\n      pop\n        /* \"#utility.yul\":1025:1151   */\n      swap2\n      swap1\n      pop\n      jump\t// out\n        /* \"#utility.yul\":1157:1253   */\n    tag_123:\n        /* \"#utility.yul\":1194:1201   */\n      0x00\n        /* \"#utility.yul\":1223:1247   */\n      tag_181\n        /* \"#utility.yul\":1241:1246   */\n      dup3\n        /* \"#utility.yul\":1223:1247   */\n      tag_122\n      jump\t// in\n    tag_181:\n        /* \"#utility.yul\":1212:1247   */\n      swap1\n      pop\n        /* \"#utility.yul\":1157:1253   */\n      swap2\n      swap1\n      pop\n      jump\t// out\n        /* \"#utility.yul\":1259:1381   */\n    tag_124:\n        /* \"#utility.yul\":1332:1356   */\n      tag_183\n        /* \"#utility.yul\":1350:1355   */\n      dup2\n        /* \"#utility.yul\":1332:1356   */\n      tag_123\n      jump\t// in\n    tag_183:\n        /* \"#utility.yul\":1325:1330   */\n      dup2\n        /* \"#utility.yul\":1322:1357   */\n      eq\n        /* \"#utility.yul\":1312:1375   */\n      tag_184\n      jumpi\n        /* \"#utility.yul\":1371:1372   */\n      0x00\n        /* \"#utility.yul\":1368:1369   */\n      dup1\n        /* \"#utility.yul\":1361:1373   */\n      revert\n        /* \"#utility.yul\":1312:1375   */\n    tag_184:\n        /* \"#utility.yul\":1259:1381   */\n      pop\n      jump\t// out\n        /* \"#utility.yul\":1387:1526   */\n    tag_125:\n        /* \"#utility.yul\":1433:1438   */\n      0x00\n        /* \"#utility.yul\":1471:1477   */\n      dup2\n        /* \"#utility.yul\":1458:1478   */\n      calldataload\n        /* \"#utility.yul\":1449:1478   */\n      swap1\n      pop\n        /* \"#utility.yul\":1487:1520   */\n      tag_186\n        /* \"#utility.yul\":1514:1519   */\n      dup2\n        /* \"#utility.yul\":1487:1520   */\n      tag_124\n      jump\t// in\n    tag_186:\n        /* \"#utility.yul\":1387:1526   */\n      swap3\n      swap2\n      pop\n      pop\n      jump\t// out\n        /* \"#utility.yul\":1532:1861   */\n    tag_21:\n        /* \"#utility.yul\":1591:1597   */\n      0x00\n        /* \"#utility.yul\":1640:1642   */\n      0x20\n        /* \"#utility.yul\":1628:1637   */\n      dup3\n        /* \"#utility.yul\":1619:1626   */\n      dup5\n        /* \"#utility.yul\":1615:1638   */\n      sub\n        /* \"#utility.yul\":1611:1643   */\n      slt\n        /* \"#utility.yul\":1608:1727   */\n      iszero\n      tag_188\n      jumpi\n        /* \"#utility.yul\":1646:1725   */\n      tag_189\n      tag_117\n      jump\t// in\n    tag_189:\n        /* \"#utility.yul\":1608:1727   */\n    tag_188:\n        /* \"#utility.yul\":1766:1767   */\n      0x00\n        /* \"#utility.yul\":1791:1844   */\n      tag_190\n        /* \"#utility.yul\":1836:1843   */\n      dup5\n        /* \"#utility.yul\":1827:1833   */\n      dup3\n        /* \"#utility.yul\":1816:1825   */\n      dup6\n        /* \"#utility.yul\":1812:1834   */\n      add\n        /* \"#utility.yul\":1791:1844   */\n      tag_125\n      jump\t// in\n    tag_190:\n        /* \"#utility.yul\":1781:1844   */\n      swap2\n      pop\n        /* \"#utility.yul\":1737:1854   */\n      pop\n        /* \"#utility.yul\":1532:1861   */\n      swap3\n      swap2\n      pop\n      pop\n      jump\t// out\n        /* \"#utility.yul\":1867:1957   */\n    tag_126:\n        /* \"#utility.yul\":1901:1908   */\n      0x00\n        /* \"#utility.yul\":1944:1949   */\n      dup2\n        /* \"#utility.yul\":1937:1950   */\n      iszero\n        /* \"#utility.yul\":1930:1951   */\n      iszero\n        /* \"#utility.yul\":1919:1951   */\n      swap1\n      pop\n        /* \"#utility.yul\":1867:1957   */\n      swap2\n      swap1\n      pop\n      jump\t// out\n        /* \"#utility.yul\":1963:2072   */\n    tag_127:\n        /* \"#utility.yul\":2044:2065   */\n      tag_193\n        /* \"#utility.yul\":2059:2064   */\n      dup2\n        /* \"#utility.yul\":2044:2065   */\n      tag_126\n      jump\t// in\n    tag_193:\n        /* \"#utility.yul\":2039:2042   */\n      dup3\n        /* \"#utility.yul\":2032:2066   */\n      mstore\n        /* \"#utility.yul\":1963:2072   */\n      pop\n      pop\n      jump\t// out\n        /* \"#utility.yul\":2078:2288   */\n    tag_24:\n        /* \"#utility.yul\":2165:2169   */\n      0x00\n        /* \"#utility.yul\":2203:2205   */\n      0x20\n        /* \"#utility.yul\":2192:2201   */\n      dup3\n        /* \"#utility.yul\":2188:2206   */\n      add\n        /* \"#utility.yul\":2180:2206   */\n      swap1\n      pop\n        /* \"#utility.yul\":2216:2281   */\n      tag_195\n        /* \"#utility.yul\":2278:2279   */\n      0x00\n        /* \"#utility.yul\":2267:2276   */\n      dup4\n        /* \"#utility.yul\":2263:2280   */\n      add\n        /* \"#utility.yul\":2254:2260   */\n      dup5\n        /* \"#utility.yul\":2216:2281   */\n      tag_127\n      jump\t// in\n    tag_195:\n        /* \"#utility.yul\":2078:2288   */\n      swap3\n      swap2\n      pop\n      pop\n      jump\t// out\n        /* \"#utility.yul\":2294:2412   */\n    tag_128:\n        /* \"#utility.yul\":2381:2405   */\n      tag_197\n        /* \"#utility.yul\":2399:2404   */\n      dup2\n        /* \"#utility.yul\":2381:2405   */\n      tag_119\n      jump\t// in\n    tag_197:\n        /* \"#utility.yul\":2376:2379   */\n      dup3\n        /* \"#utility.yul\":2369:2406   */\n      mstore\n        /* \"#utility.yul\":2294:2412   */\n      pop\n      pop\n      jump\t// out\n        /* \"#utility.yul\":2418:2640   */\n    tag_29:\n        /* \"#utility.yul\":2511:2515   */\n      0x00\n        /* \"#utility.yul\":2549:2551   */\n      0x20\n        /* \"#utility.yul\":2538:2547   */\n      dup3\n        /* \"#utility.yul\":2534:2552   */\n      add\n        /* \"#utility.yul\":2526:2552   */\n      swap1\n      pop\n        /* \"#utility.yul\":2562:2633   */\n      tag_199\n        /* \"#utility.yul\":2630:2631   */\n      0x00\n        /* \"#utility.yul\":2619:2628   */\n      dup4\n        /* \"#utility.yul\":2615:2632   */\n      add\n        /* \"#utility.yul\":2606:2612   */\n      dup5\n        /* \"#utility.yul\":2562:2633   */\n      tag_128\n      jump\t// in\n    tag_199:\n        /* \"#utility.yul\":2418:2640   */\n      swap3\n      swap2\n      pop\n      pop\n      jump\t// out\n        /* \"#utility.yul\":2646:2764   */\n    tag_129:\n        /* \"#utility.yul\":2733:2757   */\n      tag_201\n        /* \"#utility.yul\":2751:2756   */\n      dup2\n        /* \"#utility.yul\":2733:2757   */\n      tag_123\n      jump\t// in\n    tag_201:\n        /* \"#utility.yul\":2728:2731   */\n      dup3\n        /* \"#utility.yul\":2721:2758   */\n      mstore\n        /* \"#utility.yul\":2646:2764   */\n      pop\n      pop\n      jump\t// out\n        /* \"#utility.yul\":2770:2992   */\n    tag_34:\n        /* \"#utility.yul\":2863:2867   */\n      0x00\n        /* \"#utility.yul\":2901:2903   */\n      0x20\n        /* \"#utility.yul\":2890:2899   */\n      dup3\n        /* \"#utility.yul\":2886:2904   */\n      add\n        /* \"#utility.yul\":2878:2904   */\n      swap1\n      pop\n        /* \"#utility.yul\":2914:2985   */\n      tag_203\n        /* \"#utility.yul\":2982:2983   */\n      0x00\n        /* \"#utility.yul\":2971:2980   */\n      dup4\n        /* \"#utility.yul\":2967:2984   */\n      add\n        /* \"#utility.yul\":2958:2964   */\n      dup5\n        /* \"#utility.yul\":2914:2985   */\n      tag_129\n      jump\t// in\n    tag_203:\n        /* \"#utility.yul\":2770:2992   */\n      swap3\n      swap2\n      pop\n      pop\n      jump\t// out\n        /* \"#utility.yul\":2998:3097   */\n    tag_130:\n        /* \"#utility.yul\":3050:3056   */\n      0x00\n        /* \"#utility.yul\":3084:3089   */\n      dup2\n        /* \"#utility.yul\":3078:3090   */\n      mload\n        /* \"#utility.yul\":3068:3090   */\n      swap1\n      pop\n        /* \"#utility.yul\":2998:3097   */\n      swap2\n      swap1\n      pop\n      jump\t// out\n        /* \"#utility.yul\":3103:3272   */\n    tag_131:\n        /* \"#utility.yul\":3187:3198   */\n      0x00\n        /* \"#utility.yul\":3221:3227   */\n      dup3\n        /* \"#utility.yul\":3216:3219   */\n      dup3\n        /* \"#utility.yul\":3209:3228   */\n      mstore\n        /* \"#utility.yul\":3261:3265   */\n      0x20\n        /* \"#utility.yul\":3256:3259   */\n      dup3\n        /* \"#utility.yul\":3252:3266   */\n      add\n        /* \"#utility.yul\":3237:3266   */\n      swap1\n      pop\n        /* \"#utility.yul\":3103:3272   */\n      swap3\n      swap2\n      pop\n      pop\n      jump\t// out\n        /* \"#utility.yul\":3278:3585   */\n    tag_132:\n        /* \"#utility.yul\":3346:3347   */\n      0x00\n        /* \"#utility.yul\":3356:3469   */\n    tag_207:\n        /* \"#utility.yul\":3370:3376   */\n      dup4\n        /* \"#utility.yul\":3367:3368   */\n      dup2\n        /* \"#utility.yul\":3364:3377   */\n      lt\n        /* \"#utility.yul\":3356:3469   */\n      iszero\n      tag_209\n      jumpi\n        /* \"#utility.yul\":3455:3456   */\n      dup1\n        /* \"#utility.yul\":3450:3453   */\n      dup3\n        /* \"#utility.yul\":3446:3457   */\n      add\n        /* \"#utility.yul\":3440:3458   */\n      mload\n        /* \"#utility.yul\":3436:3437   */\n      dup2\n        /* \"#utility.yul\":3431:3434   */\n      dup5\n        /* \"#utility.yul\":3427:3438   */\n      add\n        /* \"#utility.yul\":3420:3459   */\n      mstore\n        /* \"#utility.yul\":3392:3394   */\n      0x20\n        /* \"#utility.yul\":3389:3390   */\n      dup2\n        /* \"#utility.yul\":3385:3395   */\n      add\n        /* \"#utility.yul\":3380:3395   */\n      swap1\n      pop\n        /* \"#utility.yul\":3356:3469   */\n      jump(tag_207)\n    tag_209:\n        /* \"#utility.yul\":3487:3493   */\n      dup4\n        /* \"#utility.yul\":3484:3485   */\n      dup2\n        /* \"#utility.yul\":3481:3494   */\n      gt\n        /* \"#utility.yul\":3478:3579   */\n      iszero\n      tag_210\n      jumpi\n        /* \"#utility.yul\":3567:3568   */\n      0x00\n        /* \"#utility.yul\":3558:3564   */\n      dup5\n        /* \"#utility.yul\":3553:3556   */\n      dup5\n        /* \"#utility.yul\":3549:3565   */\n      add\n        /* \"#utility.yul\":3542:3569   */\n      mstore\n        /* \"#utility.yul\":3478:3579   */\n    tag_210:\n        /* \"#utility.yul\":3327:3585   */\n      pop\n        /* \"#utility.yul\":3278:3585   */\n      pop\n      pop\n      pop\n      jump\t// out\n        /* \"#utility.yul\":3591:3693   */\n    tag_133:\n        /* \"#utility.yul\":3632:3638   */\n      0x00\n        /* \"#utility.yul\":3683:3685   */\n      0x1f\n        /* \"#utility.yul\":3679:3686   */\n      not\n        /* \"#utility.yul\":3674:3676   */\n      0x1f\n        /* \"#utility.yul\":3667:3672   */\n      dup4\n        /* \"#utility.yul\":3663:3677   */\n      add\n        /* \"#utility.yul\":3659:3687   */\n      and\n        /* \"#utility.yul\":3649:3687   */\n      swap1\n      pop\n        /* \"#utility.yul\":3591:3693   */\n      swap2\n      swap1\n      pop\n      jump\t// out\n        /* \"#utility.yul\":3699:4063   */\n    tag_134:\n        /* \"#utility.yul\":3787:3790   */\n      0x00\n        /* \"#utility.yul\":3815:3854   */\n      tag_213\n        /* \"#utility.yul\":3848:3853   */\n      dup3\n        /* \"#utility.yul\":3815:3854   */\n      tag_130\n      jump\t// in\n    tag_213:\n        /* \"#utility.yul\":3870:3941   */\n      tag_214\n        /* \"#utility.yul\":3934:3940   */\n      dup2\n        /* \"#utility.yul\":3929:3932   */\n      dup6\n        /* \"#utility.yul\":3870:3941   */\n      tag_131\n      jump\t// in\n    tag_214:\n        /* \"#utility.yul\":3863:3941   */\n      swap4\n      pop\n        /* \"#utility.yul\":3950:4002   */\n      tag_215\n        /* \"#utility.yul\":3995:4001   */\n      dup2\n        /* \"#utility.yul\":3990:3993   */\n      dup6\n        /* \"#utility.yul\":3983:3987   */\n      0x20\n        /* \"#utility.yul\":3976:3981   */\n      dup7\n        /* \"#utility.yul\":3972:3988   */\n      add\n        /* \"#utility.yul\":3950:4002   */\n      tag_132\n      jump\t// in\n    tag_215:\n        /* \"#utility.yul\":4027:4056   */\n      tag_216\n        /* \"#utility.yul\":4049:4055   */\n      dup2\n        /* \"#utility.yul\":4027:4056   */\n      tag_133\n      jump\t// in\n    tag_216:\n        /* \"#utility.yul\":4022:4025   */\n      dup5\n        /* \"#utility.yul\":4018:4057   */\n      add\n        /* \"#utility.yul\":4011:4057   */\n      swap2\n      pop\n        /* \"#utility.yul\":3791:4063   */\n      pop\n        /* \"#utility.yul\":3699:4063   */\n      swap3\n      swap2\n      pop\n      pop\n      jump\t// out\n        /* \"#utility.yul\":4069:4173   */\n    tag_135:\n        /* \"#utility.yul\":4114:4121   */\n      0x00\n        /* \"#utility.yul\":4143:4167   */\n      tag_218\n        /* \"#utility.yul\":4161:4166   */\n      dup3\n        /* \"#utility.yul\":4143:4167   */\n      tag_122\n      jump\t// in\n    tag_218:\n        /* \"#utility.yul\":4132:4167   */\n      swap1\n      pop\n        /* \"#utility.yul\":4069:4173   */\n      swap2\n      swap1\n      pop\n      jump\t// out\n        /* \"#utility.yul\":4179:4321   */\n    tag_136:\n        /* \"#utility.yul\":4282:4314   */\n      tag_220\n        /* \"#utility.yul\":4308:4313   */\n      dup2\n        /* \"#utility.yul\":4282:4314   */\n      tag_135\n      jump\t// in\n    tag_220:\n        /* \"#utility.yul\":4277:4280   */\n      dup3\n        /* \"#utility.yul\":4270:4315   */\n      mstore\n        /* \"#utility.yul\":4179:4321   */\n      pop\n      pop\n      jump\t// out\n        /* \"#utility.yul\":4327:5102   */\n    tag_40:\n        /* \"#utility.yul\":4562:4566   */\n      0x00\n        /* \"#utility.yul\":4600:4603   */\n      0xa0\n        /* \"#utility.yul\":4589:4598   */\n      dup3\n        /* \"#utility.yul\":4585:4604   */\n      add\n        /* \"#utility.yul\":4577:4604   */\n      swap1\n      pop\n        /* \"#utility.yul\":4650:4659   */\n      dup2\n        /* \"#utility.yul\":4644:4648   */\n      dup2\n        /* \"#utility.yul\":4640:4660   */\n      sub\n        /* \"#utility.yul\":4636:4637   */\n      0x00\n        /* \"#utility.yul\":4625:4634   */\n      dup4\n        /* \"#utility.yul\":4621:4638   */\n      add\n        /* \"#utility.yul\":4614:4661   */\n      mstore\n        /* \"#utility.yul\":4678:4756   */\n      tag_222\n        /* \"#utility.yul\":4751:4755   */\n      dup2\n        /* \"#utility.yul\":4742:4748   */\n      dup9\n        /* \"#utility.yul\":4678:4756   */\n      tag_134\n      jump\t// in\n    tag_222:\n        /* \"#utility.yul\":4670:4756   */\n      swap1\n      pop\n        /* \"#utility.yul\":4766:4838   */\n      tag_223\n        /* \"#utility.yul\":4834:4836   */\n      0x20\n        /* \"#utility.yul\":4823:4832   */\n      dup4\n        /* \"#utility.yul\":4819:4837   */\n      add\n        /* \"#utility.yul\":4810:4816   */\n      dup8\n        /* \"#utility.yul\":4766:4838   */\n      tag_128\n      jump\t// in\n    tag_223:\n        /* \"#utility.yul\":4848:4936   */\n      tag_224\n        /* \"#utility.yul\":4932:4934   */\n      0x40\n        /* \"#utility.yul\":4921:4930   */\n      dup4\n        /* \"#utility.yul\":4917:4935   */\n      add\n        /* \"#utility.yul\":4908:4914   */\n      dup7\n        /* \"#utility.yul\":4848:4936   */\n      tag_136\n      jump\t// in\n    tag_224:\n        /* \"#utility.yul\":4946:5012   */\n      tag_225\n        /* \"#utility.yul\":5008:5010   */\n      0x60\n        /* \"#utility.yul\":4997:5006   */\n      dup4\n        /* \"#utility.yul\":4993:5011   */\n      add\n        /* \"#utility.yul\":4984:4990   */\n      dup6\n        /* \"#utility.yul\":4946:5012   */\n      tag_127\n      jump\t// in\n    tag_225:\n        /* \"#utility.yul\":5022:5095   */\n      tag_226\n        /* \"#utility.yul\":5090:5093   */\n      0x80\n        /* \"#utility.yul\":5079:5088   */\n      dup4\n        /* \"#utility.yul\":5075:5094   */\n      add\n        /* \"#utility.yul\":5066:5072   */\n      dup5\n        /* \"#utility.yul\":5022:5095   */\n      tag_128\n      jump\t// in\n    tag_226:\n        /* \"#utility.yul\":4327:5102   */\n      swap7\n      swap6\n      pop\n      pop\n      pop\n      pop\n      pop\n      pop\n      jump\t// out\n        /* \"#utility.yul\":5108:5225   */\n    tag_137:\n        /* \"#utility.yul\":5217:5218   */\n      0x00\n        /* \"#utility.yul\":5214:5215   */\n      dup1\n        /* \"#utility.yul\":5207:5219   */\n      revert\n        /* \"#utility.yul\":5231:5348   */\n    tag_138:\n        /* \"#utility.yul\":5340:5341   */\n      0x00\n        /* \"#utility.yul\":5337:5338   */\n      dup1\n        /* \"#utility.yul\":5330:5342   */\n      revert\n        /* \"#utility.yul\":5354:5534   */\n    tag_139:\n        /* \"#utility.yul\":5402:5479   */\n      0x4e487b7100000000000000000000000000000000000000000000000000000000\n        /* \"#utility.yul\":5399:5400   */\n      0x00\n        /* \"#utility.yul\":5392:5480   */\n      mstore\n        /* \"#utility.yul\":5499:5503   */\n      0x41\n        /* \"#utility.yul\":5496:5497   */\n      0x04\n        /* \"#utility.yul\":5489:5504   */\n      mstore\n        /* \"#utility.yul\":5523:5527   */\n      0x24\n        /* \"#utility.yul\":5520:5521   */\n      0x00\n        /* \"#utility.yul\":5513:5528   */\n      revert\n        /* \"#utility.yul\":5540:5821   */\n    tag_140:\n        /* \"#utility.yul\":5623:5650   */\n      tag_231\n        /* \"#utility.yul\":5645:5649   */\n      dup3\n        /* \"#utility.yul\":5623:5650   */\n      tag_133\n      jump\t// in\n    tag_231:\n        /* \"#utility.yul\":5615:5621   */\n      dup2\n        /* \"#utility.yul\":5611:5651   */\n      add\n        /* \"#utility.yul\":5753:5759   */\n      dup2\n        /* \"#utility.yul\":5741:5751   */\n      dup2\n        /* \"#utility.yul\":5738:5760   */\n      lt\n        /* \"#utility.yul\":5717:5735   */\n      0xffffffffffffffff\n        /* \"#utility.yul\":5705:5715   */\n      dup3\n        /* \"#utility.yul\":5702:5736   */\n      gt\n        /* \"#utility.yul\":5699:5761   */\n      or\n        /* \"#utility.yul\":5696:5784   */\n      iszero\n      tag_232\n      jumpi\n        /* \"#utility.yul\":5764:5782   */\n      tag_233\n      tag_139\n      jump\t// in\n    tag_233:\n        /* \"#utility.yul\":5696:5784   */\n    tag_232:\n        /* \"#utility.yul\":5804:5814   */\n      dup1\n        /* \"#utility.yul\":5800:5802   */\n      0x40\n        /* \"#utility.yul\":5793:5815   */\n      mstore\n        /* \"#utility.yul\":5583:5821   */\n      pop\n        /* \"#utility.yul\":5540:5821   */\n      pop\n      pop\n      jump\t// out\n        /* \"#utility.yul\":5827:5956   */\n    tag_141:\n        /* \"#utility.yul\":5861:5867   */\n      0x00\n        /* \"#utility.yul\":5888:5908   */\n      tag_235\n      tag_116\n      jump\t// in\n    tag_235:\n        /* \"#utility.yul\":5878:5908   */\n      swap1\n      pop\n        /* \"#utility.yul\":5917:5950   */\n      tag_236\n        /* \"#utility.yul\":5945:5949   */\n      dup3\n        /* \"#utility.yul\":5937:5943   */\n      dup3\n        /* \"#utility.yul\":5917:5950   */\n      tag_140\n      jump\t// in\n    tag_236:\n        /* \"#utility.yul\":5827:5956   */\n      swap2\n      swap1\n      pop\n      jump\t// out\n        /* \"#utility.yul\":5962:6270   */\n    tag_142:\n        /* \"#utility.yul\":6024:6028   */\n      0x00\n        /* \"#utility.yul\":6114:6132   */\n      0xffffffffffffffff\n        /* \"#utility.yul\":6106:6112   */\n      dup3\n        /* \"#utility.yul\":6103:6133   */\n      gt\n        /* \"#utility.yul\":6100:6156   */\n      iszero\n      tag_238\n      jumpi\n        /* \"#utility.yul\":6136:6154   */\n      tag_239\n      tag_139\n      jump\t// in\n    tag_239:\n        /* \"#utility.yul\":6100:6156   */\n    tag_238:\n        /* \"#utility.yul\":6174:6203   */\n      tag_240\n        /* \"#utility.yul\":6196:6202   */\n      dup3\n        /* \"#utility.yul\":6174:6203   */\n      tag_133\n      jump\t// in\n    tag_240:\n        /* \"#utility.yul\":6166:6203   */\n      swap1\n      pop\n        /* \"#utility.yul\":6258:6262   */\n      0x20\n        /* \"#utility.yul\":6252:6256   */\n      dup2\n        /* \"#utility.yul\":6248:6263   */\n      add\n        /* \"#utility.yul\":6240:6263   */\n      swap1\n      pop\n        /* \"#utility.yul\":5962:6270   */\n      swap2\n      swap1\n      pop\n      jump\t// out\n        /* \"#utility.yul\":6276:6430   */\n    tag_143:\n        /* \"#utility.yul\":6360:6366   */\n      dup3\n        /* \"#utility.yul\":6355:6358   */\n      dup2\n        /* \"#utility.yul\":6350:6353   */\n      dup4\n        /* \"#utility.yul\":6337:6367   */\n      calldatacopy\n        /* \"#utility.yul\":6422:6423   */\n      0x00\n        /* \"#utility.yul\":6413:6419   */\n      dup4\n        /* \"#utility.yul\":6408:6411   */\n      dup4\n        /* \"#utility.yul\":6404:6420   */\n      add\n        /* \"#utility.yul\":6397:6424   */\n      mstore\n        /* \"#utility.yul\":6276:6430   */\n      pop\n      pop\n      pop\n      jump\t// out\n        /* \"#utility.yul\":6436:6848   */\n    tag_144:\n        /* \"#utility.yul\":6514:6519   */\n      0x00\n        /* \"#utility.yul\":6539:6605   */\n      tag_243\n        /* \"#utility.yul\":6555:6604   */\n      tag_244\n        /* \"#utility.yul\":6597:6603   */\n      dup5\n        /* \"#utility.yul\":6555:6604   */\n      tag_142\n      jump\t// in\n    tag_244:\n        /* \"#utility.yul\":6539:6605   */\n      tag_141\n      jump\t// in\n    tag_243:\n        /* \"#utility.yul\":6530:6605   */\n      swap1\n      pop\n        /* \"#utility.yul\":6628:6634   */\n      dup3\n        /* \"#utility.yul\":6621:6626   */\n      dup2\n        /* \"#utility.yul\":6614:6635   */\n      mstore\n        /* \"#utility.yul\":6666:6670   */\n      0x20\n        /* \"#utility.yul\":6659:6664   */\n      dup2\n        /* \"#utility.yul\":6655:6671   */\n      add\n        /* \"#utility.yul\":6704:6707   */\n      dup5\n        /* \"#utility.yul\":6695:6701   */\n      dup5\n        /* \"#utility.yul\":6690:6693   */\n      dup5\n        /* \"#utility.yul\":6686:6702   */\n      add\n        /* \"#utility.yul\":6683:6708   */\n      gt\n        /* \"#utility.yul\":6680:6792   */\n      iszero\n      tag_245\n      jumpi\n        /* \"#utility.yul\":6711:6790   */\n      tag_246\n      tag_138\n      jump\t// in\n    tag_246:\n        /* \"#utility.yul\":6680:6792   */\n    tag_245:\n        /* \"#utility.yul\":6801:6842   */\n      tag_247\n        /* \"#utility.yul\":6835:6841   */\n      dup5\n        /* \"#utility.yul\":6830:6833   */\n      dup3\n        /* \"#utility.yul\":6825:6828   */\n      dup6\n        /* \"#utility.yul\":6801:6842   */\n      tag_143\n      jump\t// in\n    tag_247:\n        /* \"#utility.yul\":6520:6848   */\n      pop\n        /* \"#utility.yul\":6436:6848   */\n      swap4\n      swap3\n      pop\n      pop\n      pop\n      jump\t// out\n        /* \"#utility.yul\":6868:7208   */\n    tag_145:\n        /* \"#utility.yul\":6924:6929   */\n      0x00\n        /* \"#utility.yul\":6973:6976   */\n      dup3\n        /* \"#utility.yul\":6966:6970   */\n      0x1f\n        /* \"#utility.yul\":6958:6964   */\n      dup4\n        /* \"#utility.yul\":6954:6971   */\n      add\n        /* \"#utility.yul\":6950:6977   */\n      slt\n        /* \"#utility.yul\":6940:7062   */\n      tag_249\n      jumpi\n        /* \"#utility.yul\":6981:7060   */\n      tag_250\n      tag_137\n      jump\t// in\n    tag_250:\n        /* \"#utility.yul\":6940:7062   */\n    tag_249:\n        /* \"#utility.yul\":7098:7104   */\n      dup2\n        /* \"#utility.yul\":7085:7105   */\n      calldataload\n        /* \"#utility.yul\":7123:7202   */\n      tag_251\n        /* \"#utility.yul\":7198:7201   */\n      dup5\n        /* \"#utility.yul\":7190:7196   */\n      dup3\n        /* \"#utility.yul\":7183:7187   */\n      0x20\n        /* \"#utility.yul\":7175:7181   */\n      dup7\n        /* \"#utility.yul\":7171:7188   */\n      add\n        /* \"#utility.yul\":7123:7202   */\n      tag_144\n      jump\t// in\n    tag_251:\n        /* \"#utility.yul\":7114:7202   */\n      swap2\n      pop\n        /* \"#utility.yul\":6930:7208   */\n      pop\n        /* \"#utility.yul\":6868:7208   */\n      swap3\n      swap2\n      pop\n      pop\n      jump\t// out\n        /* \"#utility.yul\":7214:7352   */\n    tag_146:\n        /* \"#utility.yul\":7295:7327   */\n      tag_253\n        /* \"#utility.yul\":7321:7326   */\n      dup2\n        /* \"#utility.yul\":7295:7327   */\n      tag_135\n      jump\t// in\n    tag_253:\n        /* \"#utility.yul\":7288:7293   */\n      dup2\n        /* \"#utility.yul\":7285:7328   */\n      eq\n        /* \"#utility.yul\":7275:7346   */\n      tag_254\n      jumpi\n        /* \"#utility.yul\":7342:7343   */\n      0x00\n        /* \"#utility.yul\":7339:7340   */\n      dup1\n        /* \"#utility.yul\":7332:7344   */\n      revert\n        /* \"#utility.yul\":7275:7346   */\n    tag_254:\n        /* \"#utility.yul\":7214:7352   */\n      pop\n      jump\t// out\n        /* \"#utility.yul\":7358:7513   */\n    tag_147:\n        /* \"#utility.yul\":7412:7417   */\n      0x00\n        /* \"#utility.yul\":7450:7456   */\n      dup2\n        /* \"#utility.yul\":7437:7457   */\n      calldataload\n        /* \"#utility.yul\":7428:7457   */\n      swap1\n      pop\n        /* \"#utility.yul\":7466:7507   */\n      tag_256\n        /* \"#utility.yul\":7501:7506   */\n      dup2\n        /* \"#utility.yul\":7466:7507   */\n      tag_146\n      jump\t// in\n    tag_256:\n        /* \"#utility.yul\":7358:7513   */\n      swap3\n      swap2\n      pop\n      pop\n      jump\t// out\n        /* \"#utility.yul\":7519:8334   */\n    tag_48:\n        /* \"#utility.yul\":7614:7620   */\n      0x00\n        /* \"#utility.yul\":7622:7628   */\n      dup1\n        /* \"#utility.yul\":7630:7636   */\n      0x00\n        /* \"#utility.yul\":7679:7681   */\n      0x60\n        /* \"#utility.yul\":7667:7676   */\n      dup5\n        /* \"#utility.yul\":7658:7665   */\n      dup7\n        /* \"#utility.yul\":7654:7677   */\n      sub\n        /* \"#utility.yul\":7650:7682   */\n      slt\n        /* \"#utility.yul\":7647:7766   */\n      iszero\n      tag_258\n      jumpi\n        /* \"#utility.yul\":7685:7764   */\n      tag_259\n      tag_117\n      jump\t// in\n    tag_259:\n        /* \"#utility.yul\":7647:7766   */\n    tag_258:\n        /* \"#utility.yul\":7833:7834   */\n      0x00\n        /* \"#utility.yul\":7822:7831   */\n      dup5\n        /* \"#utility.yul\":7818:7835   */\n      add\n        /* \"#utility.yul\":7805:7836   */\n      calldataload\n        /* \"#utility.yul\":7863:7881   */\n      0xffffffffffffffff\n        /* \"#utility.yul\":7855:7861   */\n      dup2\n        /* \"#utility.yul\":7852:7882   */\n      gt\n        /* \"#utility.yul\":7849:7966   */\n      iszero\n      tag_260\n      jumpi\n        /* \"#utility.yul\":7885:7964   */\n      tag_261\n      tag_118\n      jump\t// in\n    tag_261:\n        /* \"#utility.yul\":7849:7966   */\n    tag_260:\n        /* \"#utility.yul\":7990:8053   */\n      tag_262\n        /* \"#utility.yul\":8045:8052   */\n      dup7\n        /* \"#utility.yul\":8036:8042   */\n      dup3\n        /* \"#utility.yul\":8025:8034   */\n      dup8\n        /* \"#utility.yul\":8021:8043   */\n      add\n        /* \"#utility.yul\":7990:8053   */\n      tag_145\n      jump\t// in\n    tag_262:\n        /* \"#utility.yul\":7980:8053   */\n      swap4\n      pop\n        /* \"#utility.yul\":7776:8063   */\n      pop\n        /* \"#utility.yul\":8102:8104   */\n      0x20\n        /* \"#utility.yul\":8128:8181   */\n      tag_263\n        /* \"#utility.yul\":8173:8180   */\n      dup7\n        /* \"#utility.yul\":8164:8170   */\n      dup3\n        /* \"#utility.yul\":8153:8162   */\n      dup8\n        /* \"#utility.yul\":8149:8171   */\n      add\n        /* \"#utility.yul\":8128:8181   */\n      tag_121\n      jump\t// in\n    tag_263:\n        /* \"#utility.yul\":8118:8181   */\n      swap3\n      pop\n        /* \"#utility.yul\":8073:8191   */\n      pop\n        /* \"#utility.yul\":8230:8232   */\n      0x40\n        /* \"#utility.yul\":8256:8317   */\n      tag_264\n        /* \"#utility.yul\":8309:8316   */\n      dup7\n        /* \"#utility.yul\":8300:8306   */\n      dup3\n        /* \"#utility.yul\":8289:8298   */\n      dup8\n        /* \"#utility.yul\":8285:8307   */\n      add\n        /* \"#utility.yul\":8256:8317   */\n      tag_147\n      jump\t// in\n    tag_264:\n        /* \"#utility.yul\":8246:8317   */\n      swap2\n      pop\n        /* \"#utility.yul\":8201:8327   */\n      pop\n        /* \"#utility.yul\":7519:8334   */\n      swap3\n      pop\n      swap3\n      pop\n      swap3\n      jump\t// out\n        /* \"#utility.yul\":8340:8576   */\n    tag_148:\n        /* \"#utility.yul\":8480:8514   */\n      0x4f6e6c79207468652063616d706169676e206d616e616765722063616e206361\n        /* \"#utility.yul\":8476:8477   */\n      0x00\n        /* \"#utility.yul\":8468:8474   */\n      dup3\n        /* \"#utility.yul\":8464:8478   */\n      add\n        /* \"#utility.yul\":8457:8515   */\n      mstore\n        /* \"#utility.yul\":8549:8568   */\n      0x6c6c20746869732066756e6374696f6e2e000000000000000000000000000000\n        /* \"#utility.yul\":8544:8546   */\n      0x20\n        /* \"#utility.yul\":8536:8542   */\n      dup3\n        /* \"#utility.yul\":8532:8547   */\n      add\n        /* \"#utility.yul\":8525:8569   */\n      mstore\n        /* \"#utility.yul\":8340:8576   */\n      pop\n      jump\t// out\n        /* \"#utility.yul\":8582:8948   */\n    tag_149:\n        /* \"#utility.yul\":8724:8727   */\n      0x00\n        /* \"#utility.yul\":8745:8812   */\n      tag_267\n        /* \"#utility.yul\":8809:8811   */\n      0x31\n        /* \"#utility.yul\":8804:8807   */\n      dup4\n        /* \"#utility.yul\":8745:8812   */\n      tag_131\n      jump\t// in\n    tag_267:\n        /* \"#utility.yul\":8738:8812   */\n      swap2\n      pop\n        /* \"#utility.yul\":8821:8914   */\n      tag_268\n        /* \"#utility.yul\":8910:8913   */\n      dup3\n        /* \"#utility.yul\":8821:8914   */\n      tag_148\n      jump\t// in\n    tag_268:\n        /* \"#utility.yul\":8939:8941   */\n      0x40\n        /* \"#utility.yul\":8934:8937   */\n      dup3\n        /* \"#utility.yul\":8930:8942   */\n      add\n        /* \"#utility.yul\":8923:8942   */\n      swap1\n      pop\n        /* \"#utility.yul\":8582:8948   */\n      swap2\n      swap1\n      pop\n      jump\t// out\n        /* \"#utility.yul\":8954:9373   */\n    tag_63:\n        /* \"#utility.yul\":9120:9124   */\n      0x00\n        /* \"#utility.yul\":9158:9160   */\n      0x20\n        /* \"#utility.yul\":9147:9156   */\n      dup3\n        /* \"#utility.yul\":9143:9161   */\n      add\n        /* \"#utility.yul\":9135:9161   */\n      swap1\n      pop\n        /* \"#utility.yul\":9207:9216   */\n      dup2\n        /* \"#utility.yul\":9201:9205   */\n      dup2\n        /* \"#utility.yul\":9197:9217   */\n      sub\n        /* \"#utility.yul\":9193:9194   */\n      0x00\n        /* \"#utility.yul\":9182:9191   */\n      dup4\n        /* \"#utility.yul\":9178:9195   */\n      add\n        /* \"#utility.yul\":9171:9218   */\n      mstore\n        /* \"#utility.yul\":9235:9366   */\n      tag_270\n        /* \"#utility.yul\":9361:9365   */\n      dup2\n        /* \"#utility.yul\":9235:9366   */\n      tag_149\n      jump\t// in\n    tag_270:\n        /* \"#utility.yul\":9227:9366   */\n      swap1\n      pop\n        /* \"#utility.yul\":8954:9373   */\n      swap2\n      swap1\n      pop\n      jump\t// out\n        /* \"#utility.yul\":9379:9559   */\n    tag_150:\n        /* \"#utility.yul\":9427:9504   */\n      0x4e487b7100000000000000000000000000000000000000000000000000000000\n        /* \"#utility.yul\":9424:9425   */\n      0x00\n        /* \"#utility.yul\":9417:9505   */\n      mstore\n        /* \"#utility.yul\":9524:9528   */\n      0x12\n        /* \"#utility.yul\":9521:9522   */\n      0x04\n        /* \"#utility.yul\":9514:9529   */\n      mstore\n        /* \"#utility.yul\":9548:9552   */\n      0x24\n        /* \"#utility.yul\":9545:9546   */\n      0x00\n        /* \"#utility.yul\":9538:9553   */\n      revert\n        /* \"#utility.yul\":9565:9745   */\n    tag_151:\n        /* \"#utility.yul\":9613:9690   */\n      0x4e487b7100000000000000000000000000000000000000000000000000000000\n        /* \"#utility.yul\":9610:9611   */\n      0x00\n        /* \"#utility.yul\":9603:9691   */\n      mstore\n        /* \"#utility.yul\":9710:9714   */\n      0x11\n        /* \"#utility.yul\":9707:9708   */\n      0x04\n        /* \"#utility.yul\":9700:9715   */\n      mstore\n        /* \"#utility.yul\":9734:9738   */\n      0x24\n        /* \"#utility.yul\":9731:9732   */\n      0x00\n        /* \"#utility.yul\":9724:9739   */\n      revert\n        /* \"#utility.yul\":9751:9936   */\n    tag_66:\n        /* \"#utility.yul\":9791:9792   */\n      0x00\n        /* \"#utility.yul\":9808:9828   */\n      tag_274\n        /* \"#utility.yul\":9826:9827   */\n      dup3\n        /* \"#utility.yul\":9808:9828   */\n      tag_119\n      jump\t// in\n    tag_274:\n        /* \"#utility.yul\":9803:9828   */\n      swap2\n      pop\n        /* \"#utility.yul\":9842:9862   */\n      tag_275\n        /* \"#utility.yul\":9860:9861   */\n      dup4\n        /* \"#utility.yul\":9842:9862   */\n      tag_119\n      jump\t// in\n    tag_275:\n        /* \"#utility.yul\":9837:9862   */\n      swap3\n      pop\n        /* \"#utility.yul\":9881:9882   */\n      dup3\n        /* \"#utility.yul\":9871:9906   */\n      tag_276\n      jumpi\n        /* \"#utility.yul\":9886:9904   */\n      tag_277\n      tag_150\n      jump\t// in\n    tag_277:\n        /* \"#utility.yul\":9871:9906   */\n    tag_276:\n        /* \"#utility.yul\":9928:9929   */\n      dup3\n        /* \"#utility.yul\":9925:9926   */\n      dup3\n        /* \"#utility.yul\":9921:9930   */\n      div\n        /* \"#utility.yul\":9916:9930   */\n      swap1\n      pop\n        /* \"#utility.yul\":9751:9936   */\n      swap3\n      swap2\n      pop\n      pop\n      jump\t// out\n        /* \"#utility.yul\":9942:10189   */\n    tag_152:\n        /* \"#utility.yul\":10082:10116   */\n      0x546869732072657175657374206e65656473206d6f726520617070726f76616c\n        /* \"#utility.yul\":10078:10079   */\n      0x00\n        /* \"#utility.yul\":10070:10076   */\n      dup3\n        /* \"#utility.yul\":10066:10080   */\n      add\n        /* \"#utility.yul\":10059:10117   */\n      mstore\n        /* \"#utility.yul\":10151:10181   */\n      0x73206265666f72652069742063616e2062652066696e616c697a656400000000\n        /* \"#utility.yul\":10146:10148   */\n      0x20\n        /* \"#utility.yul\":10138:10144   */\n      dup3\n        /* \"#utility.yul\":10134:10149   */\n      add\n        /* \"#utility.yul\":10127:10182   */\n      mstore\n        /* \"#utility.yul\":9942:10189   */\n      pop\n      jump\t// out\n        /* \"#utility.yul\":10195:10561   */\n    tag_153:\n        /* \"#utility.yul\":10337:10340   */\n      0x00\n        /* \"#utility.yul\":10358:10425   */\n      tag_280\n        /* \"#utility.yul\":10422:10424   */\n      0x3c\n        /* \"#utility.yul\":10417:10420   */\n      dup4\n        /* \"#utility.yul\":10358:10425   */\n      tag_131\n      jump\t// in\n    tag_280:\n        /* \"#utility.yul\":10351:10425   */\n      swap2\n      pop\n        /* \"#utility.yul\":10434:10527   */\n      tag_281\n        /* \"#utility.yul\":10523:10526   */\n      dup3\n        /* \"#utility.yul\":10434:10527   */\n      tag_152\n      jump\t// in\n    tag_281:\n        /* \"#utility.yul\":10552:10554   */\n      0x40\n        /* \"#utility.yul\":10547:10550   */\n      dup3\n        /* \"#utility.yul\":10543:10555   */\n      add\n        /* \"#utility.yul\":10536:10555   */\n      swap1\n      pop\n        /* \"#utility.yul\":10195:10561   */\n      swap2\n      swap1\n      pop\n      jump\t// out\n        /* \"#utility.yul\":10567:10986   */\n    tag_69:\n        /* \"#utility.yul\":10733:10737   */\n      0x00\n        /* \"#utility.yul\":10771:10773   */\n      0x20\n        /* \"#utility.yul\":10760:10769   */\n      dup3\n        /* \"#utility.yul\":10756:10774   */\n      add\n        /* \"#utility.yul\":10748:10774   */\n      swap1\n      pop\n        /* \"#utility.yul\":10820:10829   */\n      dup2\n        /* \"#utility.yul\":10814:10818   */\n      dup2\n        /* \"#utility.yul\":10810:10830   */\n      sub\n        /* \"#utility.yul\":10806:10807   */\n      0x00\n        /* \"#utility.yul\":10795:10804   */\n      dup4\n        /* \"#utility.yul\":10791:10808   */\n      add\n        /* \"#utility.yul\":10784:10831   */\n      mstore\n        /* \"#utility.yul\":10848:10979   */\n      tag_283\n        /* \"#utility.yul\":10974:10978   */\n      dup2\n        /* \"#utility.yul\":10848:10979   */\n      tag_153\n      jump\t// in\n    tag_283:\n        /* \"#utility.yul\":10840:10979   */\n      swap1\n      pop\n        /* \"#utility.yul\":10567:10986   */\n      swap2\n      swap1\n      pop\n      jump\t// out\n        /* \"#utility.yul\":10992:11167   */\n    tag_154:\n        /* \"#utility.yul\":11132:11159   */\n      0x5265717565737420616c726561647920636f6d706c6574656400000000000000\n        /* \"#utility.yul\":11128:11129   */\n      0x00\n        /* \"#utility.yul\":11120:11126   */\n      dup3\n        /* \"#utility.yul\":11116:11130   */\n      add\n        /* \"#utility.yul\":11109:11160   */\n      mstore\n        /* \"#utility.yul\":10992:11167   */\n      pop\n      jump\t// out\n        /* \"#utility.yul\":11173:11539   */\n    tag_155:\n        /* \"#utility.yul\":11315:11318   */\n      0x00\n        /* \"#utility.yul\":11336:11403   */\n      tag_286\n        /* \"#utility.yul\":11400:11402   */\n      0x19\n        /* \"#utility.yul\":11395:11398   */\n      dup4\n        /* \"#utility.yul\":11336:11403   */\n      tag_131\n      jump\t// in\n    tag_286:\n        /* \"#utility.yul\":11329:11403   */\n      swap2\n      pop\n        /* \"#utility.yul\":11412:11505   */\n      tag_287\n        /* \"#utility.yul\":11501:11504   */\n      dup3\n        /* \"#utility.yul\":11412:11505   */\n      tag_154\n      jump\t// in\n    tag_287:\n        /* \"#utility.yul\":11530:11532   */\n      0x20\n        /* \"#utility.yul\":11525:11528   */\n      dup3\n        /* \"#utility.yul\":11521:11533   */\n      add\n        /* \"#utility.yul\":11514:11533   */\n      swap1\n      pop\n        /* \"#utility.yul\":11173:11539   */\n      swap2\n      swap1\n      pop\n      jump\t// out\n        /* \"#utility.yul\":11545:11964   */\n    tag_72:\n        /* \"#utility.yul\":11711:11715   */\n      0x00\n        /* \"#utility.yul\":11749:11751   */\n      0x20\n        /* \"#utility.yul\":11738:11747   */\n      dup3\n        /* \"#utility.yul\":11734:11752   */\n      add\n        /* \"#utility.yul\":11726:11752   */\n      swap1\n      pop\n        /* \"#utility.yul\":11798:11807   */\n      dup2\n        /* \"#utility.yul\":11792:11796   */\n      dup2\n        /* \"#utility.yul\":11788:11808   */\n      sub\n        /* \"#utility.yul\":11784:11785   */\n      0x00\n        /* \"#utility.yul\":11773:11782   */\n      dup4\n        /* \"#utility.yul\":11769:11786   */\n      add\n        /* \"#utility.yul\":11762:11809   */\n      mstore\n        /* \"#utility.yul\":11826:11957   */\n      tag_289\n        /* \"#utility.yul\":11952:11956   */\n      dup2\n        /* \"#utility.yul\":11826:11957   */\n      tag_155\n      jump\t// in\n    tag_289:\n        /* \"#utility.yul\":11818:11957   */\n      swap1\n      pop\n        /* \"#utility.yul\":11545:11964   */\n      swap2\n      swap1\n      pop\n      jump\t// out\n        /* \"#utility.yul\":11970:12150   */\n    tag_156:\n        /* \"#utility.yul\":12018:12095   */\n      0x4e487b7100000000000000000000000000000000000000000000000000000000\n        /* \"#utility.yul\":12015:12016   */\n      0x00\n        /* \"#utility.yul\":12008:12096   */\n      mstore\n        /* \"#utility.yul\":12115:12119   */\n      0x22\n        /* \"#utility.yul\":12112:12113   */\n      0x04\n        /* \"#utility.yul\":12105:12120   */\n      mstore\n        /* \"#utility.yul\":12139:12143   */\n      0x24\n        /* \"#utility.yul\":12136:12137   */\n      0x00\n        /* \"#utility.yul\":12129:12144   */\n      revert\n        /* \"#utility.yul\":12156:12476   */\n    tag_77:\n        /* \"#utility.yul\":12200:12206   */\n      0x00\n        /* \"#utility.yul\":12237:12238   */\n      0x02\n        /* \"#utility.yul\":12231:12235   */\n      dup3\n        /* \"#utility.yul\":12227:12239   */\n      div\n        /* \"#utility.yul\":12217:12239   */\n      swap1\n      pop\n        /* \"#utility.yul\":12284:12285   */\n      0x01\n        /* \"#utility.yul\":12278:12282   */\n      dup3\n        /* \"#utility.yul\":12274:12286   */\n      and\n        /* \"#utility.yul\":12305:12323   */\n      dup1\n        /* \"#utility.yul\":12295:12376   */\n      tag_292\n      jumpi\n        /* \"#utility.yul\":12361:12365   */\n      0x7f\n        /* \"#utility.yul\":12353:12359   */\n      dup3\n        /* \"#utility.yul\":12349:12366   */\n      and\n        /* \"#utility.yul\":12339:12366   */\n      swap2\n      pop\n        /* \"#utility.yul\":12295:12376   */\n    tag_292:\n        /* \"#utility.yul\":12423:12425   */\n      0x20\n        /* \"#utility.yul\":12415:12421   */\n      dup3\n        /* \"#utility.yul\":12412:12426   */\n      lt\n        /* \"#utility.yul\":12392:12410   */\n      dup2\n        /* \"#utility.yul\":12389:12427   */\n      eq\n        /* \"#utility.yul\":12386:12470   */\n      iszero\n      tag_293\n      jumpi\n        /* \"#utility.yul\":12442:12460   */\n      tag_294\n      tag_156\n      jump\t// in\n    tag_294:\n        /* \"#utility.yul\":12386:12470   */\n    tag_293:\n        /* \"#utility.yul\":12207:12476   */\n      pop\n        /* \"#utility.yul\":12156:12476   */\n      swap2\n      swap1\n      pop\n      jump\t// out\n        /* \"#utility.yul\":12482:12715   */\n    tag_87:\n        /* \"#utility.yul\":12521:12524   */\n      0x00\n        /* \"#utility.yul\":12544:12568   */\n      tag_296\n        /* \"#utility.yul\":12562:12567   */\n      dup3\n        /* \"#utility.yul\":12544:12568   */\n      tag_119\n      jump\t// in\n    tag_296:\n        /* \"#utility.yul\":12535:12568   */\n      swap2\n      pop\n        /* \"#utility.yul\":12590:12656   */\n      0xffffffffffffffffffffffffffffffffffffffffffffffffffffffffffffffff\n        /* \"#utility.yul\":12583:12588   */\n      dup3\n        /* \"#utility.yul\":12580:12657   */\n      eq\n        /* \"#utility.yul\":12577:12680   */\n      iszero\n      tag_297\n      jumpi\n        /* \"#utility.yul\":12660:12678   */\n      tag_298\n      tag_151\n      jump\t// in\n    tag_298:\n        /* \"#utility.yul\":12577:12680   */\n    tag_297:\n        /* \"#utility.yul\":12707:12708   */\n      0x01\n        /* \"#utility.yul\":12700:12705   */\n      dup3\n        /* \"#utility.yul\":12696:12709   */\n      add\n        /* \"#utility.yul\":12689:12709   */\n      swap1\n      pop\n        /* \"#utility.yul\":12482:12715   */\n      swap2\n      swap1\n      pop\n      jump\t// out\n        /* \"#utility.yul\":12721:12944   */\n    tag_157:\n        /* \"#utility.yul\":12861:12895   */\n      0x56616c7565206c657373207468616e206d696e696d756d20636f6e7472696275\n        /* \"#utility.yul\":12857:12858   */\n      0x00\n        /* \"#utility.yul\":12849:12855   */\n      dup3\n        /* \"#utility.yul\":12845:12859   */\n      add\n        /* \"#utility.yul\":12838:12896   */\n      mstore\n        /* \"#utility.yul\":12930:12936   */\n      0x74696f6e00000000000000000000000000000000000000000000000000000000\n        /* \"#utility.yul\":12925:12927   */\n      0x20\n        /* \"#utility.yul\":12917:12923   */\n      dup3\n        /* \"#utility.yul\":12913:12928   */\n      add\n        /* \"#utility.yul\":12906:12937   */\n      mstore\n        /* \"#utility.yul\":12721:12944   */\n      pop\n      jump\t// out\n        /* \"#utility.yul\":12950:13316   */\n    tag_158:\n        /* \"#utility.yul\":13092:13095   */\n      0x00\n        /* \"#utility.yul\":13113:13180   */\n      tag_301\n        /* \"#utility.yul\":13177:13179   */\n      0x24\n        /* \"#utility.yul\":13172:13175   */\n      dup4\n        /* \"#utility.yul\":13113:13180   */\n      tag_131\n      jump\t// in\n    tag_301:\n        /* \"#utility.yul\":13106:13180   */\n      swap2\n      pop\n        /* \"#utility.yul\":13189:13282   */\n      tag_302\n        /* \"#utility.yul\":13278:13281   */\n      dup3\n        /* \"#utility.yul\":13189:13282   */\n      tag_157\n      jump\t// in\n    tag_302:\n        /* \"#utility.yul\":13307:13309   */\n      0x40\n        /* \"#utility.yul\":13302:13305   */\n      dup3\n        /* \"#utility.yul\":13298:13310   */\n      add\n        /* \"#utility.yul\":13291:13310   */\n      swap1\n      pop\n        /* \"#utility.yul\":12950:13316   */\n      swap2\n      swap1\n      pop\n      jump\t// out\n        /* \"#utility.yul\":13322:13741   */\n    tag_93:\n        /* \"#utility.yul\":13488:13492   */\n      0x00\n        /* \"#utility.yul\":13526:13528   */\n      0x20\n        /* \"#utility.yul\":13515:13524   */\n      dup3\n        /* \"#utility.yul\":13511:13529   */\n      add\n        /* \"#utility.yul\":13503:13529   */\n      swap1\n      pop\n        /* \"#utility.yul\":13575:13584   */\n      dup2\n        /* \"#utility.yul\":13569:13573   */\n      dup2\n        /* \"#utility.yul\":13565:13585   */\n      sub\n        /* \"#utility.yul\":13561:13562   */\n      0x00\n        /* \"#utility.yul\":13550:13559   */\n      dup4\n        /* \"#utility.yul\":13546:13563   */\n      add\n        /* \"#utility.yul\":13539:13586   */\n      mstore\n        /* \"#utility.yul\":13603:13734   */\n      tag_304\n        /* \"#utility.yul\":13729:13733   */\n      dup2\n        /* \"#utility.yul\":13603:13734   */\n      tag_158\n      jump\t// in\n    tag_304:\n        /* \"#utility.yul\":13595:13734   */\n      swap1\n      pop\n        /* \"#utility.yul\":13322:13741   */\n      swap2\n      swap1\n      pop\n      jump\t// out\n        /* \"#utility.yul\":13747:13970   */\n    tag_159:\n        /* \"#utility.yul\":13887:13921   */\n      0x596f7520616c726561647920646f6e6174656420746f20746869732063616d70\n        /* \"#utility.yul\":13883:13884   */\n      0x00\n        /* \"#utility.yul\":13875:13881   */\n      dup3\n        /* \"#utility.yul\":13871:13885   */\n      add\n        /* \"#utility.yul\":13864:13922   */\n      mstore\n        /* \"#utility.yul\":13956:13962   */\n      0x6169676e00000000000000000000000000000000000000000000000000000000\n        /* \"#utility.yul\":13951:13953   */\n      0x20\n        /* \"#utility.yul\":13943:13949   */\n      dup3\n        /* \"#utility.yul\":13939:13954   */\n      add\n        /* \"#utility.yul\":13932:13963   */\n      mstore\n        /* \"#utility.yul\":13747:13970   */\n      pop\n      jump\t// out\n        /* \"#utility.yul\":13976:14342   */\n    tag_160:\n        /* \"#utility.yul\":14118:14121   */\n      0x00\n        /* \"#utility.yul\":14139:14206   */\n      tag_307\n        /* \"#utility.yul\":14203:14205   */\n      0x24\n        /* \"#utility.yul\":14198:14201   */\n      dup4\n        /* \"#utility.yul\":14139:14206   */\n      tag_131\n      jump\t// in\n    tag_307:\n        /* \"#utility.yul\":14132:14206   */\n      swap2\n      pop\n        /* \"#utility.yul\":14215:14308   */\n      tag_308\n        /* \"#utility.yul\":14304:14307   */\n      dup3\n        /* \"#utility.yul\":14215:14308   */\n      tag_159\n      jump\t// in\n    tag_308:\n        /* \"#utility.yul\":14333:14335   */\n      0x40\n        /* \"#utility.yul\":14328:14331   */\n      dup3\n        /* \"#utility.yul\":14324:14336   */\n      add\n        /* \"#utility.yul\":14317:14336   */\n      swap1\n      pop\n        /* \"#utility.yul\":13976:14342   */\n      swap2\n      swap1\n      pop\n      jump\t// out\n        /* \"#utility.yul\":14348:14767   */\n    tag_96:\n        /* \"#utility.yul\":14514:14518   */\n      0x00\n        /* \"#utility.yul\":14552:14554   */\n      0x20\n        /* \"#utility.yul\":14541:14550   */\n      dup3\n        /* \"#utility.yul\":14537:14555   */\n      add\n        /* \"#utility.yul\":14529:14555   */\n      swap1\n      pop\n        /* \"#utility.yul\":14601:14610   */\n      dup2\n        /* \"#utility.yul\":14595:14599   */\n      dup2\n        /* \"#utility.yul\":14591:14611   */\n      sub\n        /* \"#utility.yul\":14587:14588   */\n      0x00\n        /* \"#utility.yul\":14576:14585   */\n      dup4\n        /* \"#utility.yul\":14572:14589   */\n      add\n        /* \"#utility.yul\":14565:14612   */\n      mstore\n        /* \"#utility.yul\":14629:14760   */\n      tag_310\n        /* \"#utility.yul\":14755:14759   */\n      dup2\n        /* \"#utility.yul\":14629:14760   */\n      tag_160\n      jump\t// in\n    tag_310:\n        /* \"#utility.yul\":14621:14760   */\n      swap1\n      pop\n        /* \"#utility.yul\":14348:14767   */\n      swap2\n      swap1\n      pop\n      jump\t// out\n        /* \"#utility.yul\":14773:15016   */\n    tag_161:\n        /* \"#utility.yul\":14913:14947   */\n      0x4f6e6c7920636f6e7472696275746f72732063616e20617070726f7665206120\n        /* \"#utility.yul\":14909:14910   */\n      0x00\n        /* \"#utility.yul\":14901:14907   */\n      dup3\n        /* \"#utility.yul\":14897:14911   */\n      add\n        /* \"#utility.yul\":14890:14948   */\n      mstore\n        /* \"#utility.yul\":14982:15008   */\n      0x7370656369666963207061796d656e7420726571756573740000000000000000\n        /* \"#utility.yul\":14977:14979   */\n      0x20\n        /* \"#utility.yul\":14969:14975   */\n      dup3\n        /* \"#utility.yul\":14965:14980   */\n      add\n        /* \"#utility.yul\":14958:15009   */\n      mstore\n        /* \"#utility.yul\":14773:15016   */\n      pop\n      jump\t// out\n        /* \"#utility.yul\":15022:15388   */\n    tag_162:\n        /* \"#utility.yul\":15164:15167   */\n      0x00\n        /* \"#utility.yul\":15185:15252   */\n      tag_313\n        /* \"#utility.yul\":15249:15251   */\n      0x38\n        /* \"#utility.yul\":15244:15247   */\n      dup4\n        /* \"#utility.yul\":15185:15252   */\n      tag_131\n      jump\t// in\n    tag_313:\n        /* \"#utility.yul\":15178:15252   */\n      swap2\n      pop\n        /* \"#utility.yul\":15261:15354   */\n      tag_314\n        /* \"#utility.yul\":15350:15353   */\n      dup3\n        /* \"#utility.yul\":15261:15354   */\n      tag_161\n      jump\t// in\n    tag_314:\n        /* \"#utility.yul\":15379:15381   */\n      0x40\n        /* \"#utility.yul\":15374:15377   */\n      dup3\n        /* \"#utility.yul\":15370:15382   */\n      add\n        /* \"#utility.yul\":15363:15382   */\n      swap1\n      pop\n        /* \"#utility.yul\":15022:15388   */\n      swap2\n      swap1\n      pop\n      jump\t// out\n        /* \"#utility.yul\":15394:15813   */\n    tag_101:\n        /* \"#utility.yul\":15560:15564   */\n      0x00\n        /* \"#utility.yul\":15598:15600   */\n      0x20\n        /* \"#utility.yul\":15587:15596   */\n      dup3\n        /* \"#utility.yul\":15583:15601   */\n      add\n        /* \"#utility.yul\":15575:15601   */\n      swap1\n      pop\n        /* \"#utility.yul\":15647:15656   */\n      dup2\n        /* \"#utility.yul\":15641:15645   */\n      dup2\n        /* \"#utility.yul\":15637:15657   */\n      sub\n        /* \"#utility.yul\":15633:15634   */\n      0x00\n        /* \"#utility.yul\":15622:15631   */\n      dup4\n        /* \"#utility.yul\":15618:15635   */\n      add\n        /* \"#utility.yul\":15611:15658   */\n      mstore\n        /* \"#utility.yul\":15675:15806   */\n      tag_316\n        /* \"#utility.yul\":15801:15805   */\n      dup2\n        /* \"#utility.yul\":15675:15806   */\n      tag_162\n      jump\t// in\n    tag_316:\n        /* \"#utility.yul\":15667:15806   */\n      swap1\n      pop\n        /* \"#utility.yul\":15394:15813   */\n      swap2\n      swap1\n      pop\n      jump\t// out\n        /* \"#utility.yul\":15819:16052   */\n    tag_163:\n        /* \"#utility.yul\":15959:15993   */\n      0x596f75206861766520616c726561647920766f74656420746f20617070726f76\n        /* \"#utility.yul\":15955:15956   */\n      0x00\n        /* \"#utility.yul\":15947:15953   */\n      dup3\n        /* \"#utility.yul\":15943:15957   */\n      add\n        /* \"#utility.yul\":15936:15994   */\n      mstore\n        /* \"#utility.yul\":16028:16044   */\n      0x6520746869732072657175657374000000000000000000000000000000000000\n        /* \"#utility.yul\":16023:16025   */\n      0x20\n        /* \"#utility.yul\":16015:16021   */\n      dup3\n        /* \"#utility.yul\":16011:16026   */\n      add\n        /* \"#utility.yul\":16004:16045   */\n      mstore\n        /* \"#utility.yul\":15819:16052   */\n      pop\n      jump\t// out\n        /* \"#utility.yul\":16058:16424   */\n    tag_164:\n        /* \"#utility.yul\":16200:16203   */\n      0x00\n        /* \"#utility.yul\":16221:16288   */\n      tag_319\n        /* \"#utility.yul\":16285:16287   */\n      0x2e\n        /* \"#utility.yul\":16280:16283   */\n      dup4\n        /* \"#utility.yul\":16221:16288   */\n      tag_131\n      jump\t// in\n    tag_319:\n        /* \"#utility.yul\":16214:16288   */\n      swap2\n      pop\n        /* \"#utility.yul\":16297:16390   */\n      tag_320\n        /* \"#utility.yul\":16386:16389   */\n      dup3\n        /* \"#utility.yul\":16297:16390   */\n      tag_163\n      jump\t// in\n    tag_320:\n        /* \"#utility.yul\":16415:16417   */\n      0x40\n        /* \"#utility.yul\":16410:16413   */\n      dup3\n        /* \"#utility.yul\":16406:16418   */\n      add\n        /* \"#utility.yul\":16399:16418   */\n      swap1\n      pop\n        /* \"#utility.yul\":16058:16424   */\n      swap2\n      swap1\n      pop\n      jump\t// out\n        /* \"#utility.yul\":16430:16849   */\n    tag_104:\n        /* \"#utility.yul\":16596:16600   */\n      0x00\n        /* \"#utility.yul\":16634:16636   */\n      0x20\n        /* \"#utility.yul\":16623:16632   */\n      dup3\n        /* \"#utility.yul\":16619:16637   */\n      add\n        /* \"#utility.yul\":16611:16637   */\n      swap1\n      pop\n        /* \"#utility.yul\":16683:16692   */\n      dup2\n        /* \"#utility.yul\":16677:16681   */\n      dup2\n        /* \"#utility.yul\":16673:16693   */\n      sub\n        /* \"#utility.yul\":16669:16670   */\n      0x00\n        /* \"#utility.yul\":16658:16667   */\n      dup4\n        /* \"#utility.yul\":16654:16671   */\n      add\n        /* \"#utility.yul\":16647:16694   */\n      mstore\n        /* \"#utility.yul\":16711:16842   */\n      tag_322\n        /* \"#utility.yul\":16837:16841   */\n      dup2\n        /* \"#utility.yul\":16711:16842   */\n      tag_164\n      jump\t// in\n    tag_322:\n        /* \"#utility.yul\":16703:16842   */\n      swap1\n      pop\n        /* \"#utility.yul\":16430:16849   */\n      swap2\n      swap1\n      pop\n      jump\t// out\n\n    auxdata: 0xa264697066735822122056f369f3cba3fdf531fc9ec96ac7e55c5a617b89dab7178797f4fe930a26556164736f6c63430008090033\n}\n","bytecode":{"linkReferences":{},"object":"60806040523480156200001157600080fd5b506040516200157c3803806200157c83398181016040528101906200003791906200012b565b806000806101000a81548173ffffffffffffffffffffffffffffffffffffffff021916908373ffffffffffffffffffffffffffffffffffffffff16021790555081600181905550505062000172565b600080fd5b6000819050919050565b620000a0816200008b565b8114620000ac57600080fd5b50565b600081519050620000c08162000095565b92915050565b600073ffffffffffffffffffffffffffffffffffffffff82169050919050565b6000620000f382620000c6565b9050919050565b6200010581620000e6565b81146200011157600080fd5b50565b6000815190506200012581620000fa565b92915050565b6000806040838503121562000145576200014462000086565b5b60006200015585828601620000af565b9250506020620001688582860162000114565b9150509250929050565b6113fa80620001826000396000f3fe6080604052600436106100915760003560e01c806382fde0931161005957806382fde093146101935780638a9cfd55146101be578063937e09b1146101e7578063d7bb99ba14610212578063d7d1bbdb1461021c57610091565b806303441006146100965780630a144391146100bf5780633410452a146100fc578063481c6a751461012757806381d12c5814610152575b600080fd5b3480156100a257600080fd5b506100bd60048036038101906100b89190610a8d565b610245565b005b3480156100cb57600080fd5b506100e660048036038101906100e19190610b18565b610420565b6040516100f39190610b60565b60405180910390f35b34801561010857600080fd5b50610111610440565b60405161011e9190610b8a565b60405180910390f35b34801561013357600080fd5b5061013c61044a565b6040516101499190610bb4565b60405180910390f35b34801561015e57600080fd5b5061017960048036038101906101749190610a8d565b61046e565b60405161018a959493929190610c89565b60405180910390f35b34801561019f57600080fd5b506101a8610559565b6040516101b59190610b8a565b60405180910390f35b3480156101ca57600080fd5b506101e560048036038101906101e09190610e44565b61055f565b005b3480156101f357600080fd5b506101fc6106ac565b6040516102099190610b8a565b60405180910390f35b61021a6106b2565b005b34801561022857600080fd5b50610243600480360381019061023e9190610a8d565b6107f6565b005b60008054906101000a900473ffffffffffffffffffffffffffffffffffffffff1673ffffffffffffffffffffffffffffffffffffffff163373ffffffffffffffffffffffffffffffffffffffff16146102d3576040517f08c379a00000000000000000000000000000000000000000000000000000000081526004016102ca90610f25565b60405180910390fd5b600060056000838152602001908152602001600020905060026003546102f99190610fa3565b81600301541161033e576040517f08c379a000000000000000000000000000000000000000000000000000000000815260040161033590611046565b60405180910390fd5b8060020160149054906101000a900460ff1615610390576040517f08c379a0000000000000000000000000000000000000000000000000000000008152600401610387906110b2565b60405180910390fd5b8060020160009054906101000a900473ffffffffffffffffffffffffffffffffffffffff1673ffffffffffffffffffffffffffffffffffffffff166108fc82600101549081150290604051600060405180830381858888f193505050501580156103fe573d6000803e3d6000fd5b5060018160020160146101000a81548160ff0219169083151502179055505050565b60026020528060005260406000206000915054906101000a900460ff1681565b6000600454905090565b60008054906101000a900473ffffffffffffffffffffffffffffffffffffffff1681565b600560205280600052604060002060009150905080600001805461049190611101565b80601f01602080910402602001604051908101604052809291908181526020018280546104bd90611101565b801561050a5780601f106104df5761010080835404028352916020019161050a565b820191906000526020600020905b8154815290600101906020018083116104ed57829003601f168201915b5050505050908060010154908060020160009054906101000a900473ffffffffffffffffffffffffffffffffffffffff16908060020160149054906101000a900460ff16908060030154905085565b60035481565b60008054906101000a900473ffffffffffffffffffffffffffffffffffffffff1673ffffffffffffffffffffffffffffffffffffffff163373ffffffffffffffffffffffffffffffffffffffff16146105ed576040517f08c379a00000000000000000000000000000000000000000000000000000000081526004016105e490610f25565b60405180910390fd5b6000600560006004600081548092919061060690611133565b9190505581526020019081526020016000209050838160000190805190602001906106329291906109a0565b50828160010181905550818160020160006101000a81548173ffffffffffffffffffffffffffffffffffffffff021916908373ffffffffffffffffffffffffffffffffffffffff16021790555060008160020160146101000a81548160ff0219169083151502179055506000816003018190555050505050565b60015481565b6001543410156106f7576040517f08c379a00000000000000000000000000000000000000000000000000000000081526004016106ee906111ee565b60405180910390fd5b600260003373ffffffffffffffffffffffffffffffffffffffff1673ffffffffffffffffffffffffffffffffffffffff16815260200190815260200160002060009054906101000a900460ff1615610784576040517f08c379a000000000000000000000000000000000000000000000000000000000815260040161077b90611280565b60405180910390fd5b6001600260003373ffffffffffffffffffffffffffffffffffffffff1673ffffffffffffffffffffffffffffffffffffffff16815260200190815260200160002060006101000a81548160ff021916908315150217905550600360008154809291906107ef90611133565b9190505550565b6000600560008381526020019081526020016000209050600260003373ffffffffffffffffffffffffffffffffffffffff1673ffffffffffffffffffffffffffffffffffffffff16815260200190815260200160002060009054906101000a900460ff16610899576040517f08c379a000000000000000000000000000000000000000000000000000000000815260040161089090611312565b60405180910390fd5b8060040160003373ffffffffffffffffffffffffffffffffffffffff1673ffffffffffffffffffffffffffffffffffffffff16815260200190815260200160002060009054906101000a900460ff1615610928576040517f08c379a000000000000000000000000000000000000000000000000000000000815260040161091f906113a4565b60405180910390fd5b60018160040160003373ffffffffffffffffffffffffffffffffffffffff1673ffffffffffffffffffffffffffffffffffffffff16815260200190815260200160002060006101000a81548160ff02191690831515021790555080600301600081548092919061099790611133565b91905055505050565b8280546109ac90611101565b90600052602060002090601f0160209004810192826109ce5760008555610a15565b82601f106109e757805160ff1916838001178555610a15565b82800160010185558215610a15579182015b82811115610a145782518255916020019190600101906109f9565b5b509050610a229190610a26565b5090565b5b80821115610a3f576000816000905550600101610a27565b5090565b6000604051905090565b600080fd5b600080fd5b6000819050919050565b610a6a81610a57565b8114610a7557600080fd5b50565b600081359050610a8781610a61565b92915050565b600060208284031215610aa357610aa2610a4d565b5b6000610ab184828501610a78565b91505092915050565b600073ffffffffffffffffffffffffffffffffffffffff82169050919050565b6000610ae582610aba565b9050919050565b610af581610ada565b8114610b0057600080fd5b50565b600081359050610b1281610aec565b92915050565b600060208284031215610b2e57610b2d610a4d565b5b6000610b3c84828501610b03565b91505092915050565b60008115159050919050565b610b5a81610b45565b82525050565b6000602082019050610b756000830184610b51565b92915050565b610b8481610a57565b82525050565b6000602082019050610b9f6000830184610b7b565b92915050565b610bae81610ada565b82525050565b6000602082019050610bc96000830184610ba5565b92915050565b600081519050919050565b600082825260208201905092915050565b60005b83811015610c09578082015181840152602081019050610bee565b83811115610c18576000848401525b50505050565b6000601f19601f8301169050919050565b6000610c3a82610bcf565b610c448185610bda565b9350610c54818560208601610beb565b610c5d81610c1e565b840191505092915050565b6000610c7382610aba565b9050919050565b610c8381610c68565b82525050565b600060a0820190508181036000830152610ca38188610c2f565b9050610cb26020830187610b7b565b610cbf6040830186610c7a565b610ccc6060830185610b51565b610cd96080830184610b7b565b9695505050505050565b600080fd5b600080fd5b7f4e487b7100000000000000000000000000000000000000000000000000000000600052604160045260246000fd5b610d2582610c1e565b810181811067ffffffffffffffff82111715610d4457610d43610ced565b5b80604052505050565b6000610d57610a43565b9050610d638282610d1c565b919050565b600067ffffffffffffffff821115610d8357610d82610ced565b5b610d8c82610c1e565b9050602081019050919050565b82818337600083830152505050565b6000610dbb610db684610d68565b610d4d565b905082815260208101848484011115610dd757610dd6610ce8565b5b610de2848285610d99565b509392505050565b600082601f830112610dff57610dfe610ce3565b5b8135610e0f848260208601610da8565b91505092915050565b610e2181610c68565b8114610e2c57600080fd5b50565b600081359050610e3e81610e18565b92915050565b600080600060608486031215610e5d57610e5c610a4d565b5b600084013567ffffffffffffffff811115610e7b57610e7a610a52565b5b610e8786828701610dea565b9350506020610e9886828701610a78565b9250506040610ea986828701610e2f565b9150509250925092565b7f4f6e6c79207468652063616d706169676e206d616e616765722063616e20636160008201527f6c6c20746869732066756e6374696f6e2e000000000000000000000000000000602082015250565b6000610f0f603183610bda565b9150610f1a82610eb3565b604082019050919050565b60006020820190508181036000830152610f3e81610f02565b9050919050565b7f4e487b7100000000000000000000000000000000000000000000000000000000600052601260045260246000fd5b7f4e487b7100000000000000000000000000000000000000000000000000000000600052601160045260246000fd5b6000610fae82610a57565b9150610fb983610a57565b925082610fc957610fc8610f45565b5b828204905092915050565b7f546869732072657175657374206e65656473206d6f726520617070726f76616c60008201527f73206265666f72652069742063616e2062652066696e616c697a656400000000602082015250565b6000611030603c83610bda565b915061103b82610fd4565b604082019050919050565b6000602082019050818103600083015261105f81611023565b9050919050565b7f5265717565737420616c726561647920636f6d706c6574656400000000000000600082015250565b600061109c601983610bda565b91506110a782611066565b602082019050919050565b600060208201905081810360008301526110cb8161108f565b9050919050565b7f4e487b7100000000000000000000000000000000000000000000000000000000600052602260045260246000fd5b6000600282049050600182168061111957607f821691505b6020821081141561112d5761112c6110d2565b5b50919050565b600061113e82610a57565b91507fffffffffffffffffffffffffffffffffffffffffffffffffffffffffffffffff82141561117157611170610f74565b5b600182019050919050565b7f56616c7565206c657373207468616e206d696e696d756d20636f6e747269627560008201527f74696f6e00000000000000000000000000000000000000000000000000000000602082015250565b60006111d8602483610bda565b91506111e38261117c565b604082019050919050565b60006020820190508181036000830152611207816111cb565b9050919050565b7f596f7520616c726561647920646f6e6174656420746f20746869732063616d7060008201527f6169676e00000000000000000000000000000000000000000000000000000000602082015250565b600061126a602483610bda565b91506112758261120e565b604082019050919050565b600060208201905081810360008301526112998161125d565b9050919050565b7f4f6e6c7920636f6e7472696275746f72732063616e20617070726f766520612060008201527f7370656369666963207061796d656e7420726571756573740000000000000000602082015250565b60006112fc603883610bda565b9150611307826112a0565b604082019050919050565b6000602082019050818103600083015261132b816112ef565b9050919050565b7f596f75206861766520616c726561647920766f74656420746f20617070726f7660008201527f6520746869732072657175657374000000000000000000000000000000000000602082015250565b600061138e602e83610bda565b915061139982611332565b604082019050919050565b600060208201905081810360008301526113bd81611381565b905091905056fea264697066735822122056f369f3cba3fdf531fc9ec96ac7e55c5a617b89dab7178797f4fe930a26556164736f6c63430008090033","opcodes":"PUSH1 0x80 PUSH1 0x40 MSTORE CALLVALUE DUP1 ISZERO PUSH3 0x11 JUMPI PUSH1 0x0 DUP1 REVERT JUMPDEST POP PUSH1 0x40 MLOAD PUSH3 0x157C CODESIZE SUB DUP1 PUSH3 0x157C DUP4 CODECOPY DUP2 DUP2 ADD PUSH1 0x40 MSTORE DUP2 ADD SWAP1 PUSH3 0x37 SWAP2 SWAP1 PUSH3 0x12B JUMP JUMPDEST DUP1 PUSH1 0x0 DUP1 PUSH2 0x100 EXP DUP2 SLOAD DUP2 PUSH20 0xFFFFFFFFFFFFFFFFFFFFFFFFFFFFFFFFFFFFFFFF MUL NOT AND SWAP1 DUP4 PUSH20 0xFFFFFFFFFFFFFFFFFFFFFFFFFFFFFFFFFFFFFFFF AND MUL OR SWAP1 SSTORE POP DUP2 PUSH1 0x1 DUP2 SWAP1 SSTORE POP POP POP PUSH3 0x172 JUMP JUMPDEST PUSH1 0x0 DUP1 REVERT JUMPDEST PUSH1 0x0 DUP2 SWAP1 POP SWAP2 SWAP1 POP JUMP JUMPDEST PUSH3 0xA0 DUP2 PUSH3 0x8B JUMP JUMPDEST DUP2 EQ PUSH3 0xAC JUMPI PUSH1 0x0 DUP1 REVERT JUMPDEST POP JUMP JUMPDEST PUSH1 0x0 DUP2 MLOAD SWAP1 POP PUSH3 0xC0 DUP2 PUSH3 0x95 JUMP JUMPDEST SWAP3 SWAP2 POP POP JUMP JUMPDEST PUSH1 0x0 PUSH20 0xFFFFFFFFFFFFFFFFFFFFFFFFFFFFFFFFFFFFFFFF DUP3 AND SWAP1 POP SWAP2 SWAP1 POP JUMP JUMPDEST PUSH1 0x0 PUSH3 0xF3 DUP3 PUSH3 0xC6 JUMP JUMPDEST SWAP1 POP SWAP2 SWAP1 POP JUMP JUMPDEST PUSH3 0x105 DUP2 PUSH3 0xE6 JUMP JUMPDEST DUP2 EQ PUSH3 0x111 JUMPI PUSH1 0x0 DUP1 REVERT JUMPDEST POP JUMP JUMPDEST PUSH1 0x0 DUP2 MLOAD SWAP1 POP PUSH3 0x125 DUP2 PUSH3 0xFA JUMP JUMPDEST SWAP3 SWAP2 POP POP JUMP JUMPDEST PUSH1 0x0 DUP1 PUSH1 0x40 DUP4 DUP6 SUB SLT ISZERO PUSH3 0x145 JUMPI PUSH3 0x144 PUSH3 0x86 JUMP JUMPDEST JUMPDEST PUSH1 0x0 PUSH3 0x155 DUP6 DUP3 DUP7 ADD PUSH3 0xAF JUMP JUMPDEST SWAP3 POP POP PUSH1 0x20 PUSH3 0x168 DUP6 DUP3 DUP7 ADD PUSH3 0x114 JUMP JUMPDEST SWAP2 POP POP SWAP3 POP SWAP3 SWAP1 POP JUMP JUMPDEST PUSH2 0x13FA DUP1 PUSH3 0x182 PUSH1 0x0 CODECOPY PUSH1 0x0 RETURN INVALID PUSH1 0x80 PUSH1 0x40 MSTORE PUSH1 0x4 CALLDATASIZE LT PUSH2 0x91 JUMPI PUSH1 0x0 CALLDATALOAD PUSH1 0xE0 SHR DUP1 PUSH4 0x82FDE093 GT PUSH2 0x59 JUMPI DUP1 PUSH4 0x82FDE093 EQ PUSH2 0x193 JUMPI DUP1 PUSH4 0x8A9CFD55 EQ PUSH2 0x1BE JUMPI DUP1 PUSH4 0x937E09B1 EQ PUSH2 0x1E7 JUMPI DUP1 PUSH4 0xD7BB99BA EQ PUSH2 0x212 JUMPI DUP1 PUSH4 0xD7D1BBDB EQ PUSH2 0x21C JUMPI PUSH2 0x91 JUMP JUMPDEST DUP1 PUSH4 0x3441006 EQ PUSH2 0x96 JUMPI DUP1 PUSH4 0xA144391 EQ PUSH2 0xBF JUMPI DUP1 PUSH4 0x3410452A EQ PUSH2 0xFC JUMPI DUP1 PUSH4 0x481C6A75 EQ PUSH2 0x127 JUMPI DUP1 PUSH4 0x81D12C58 EQ PUSH2 0x152 JUMPI JUMPDEST PUSH1 0x0 DUP1 REVERT JUMPDEST CALLVALUE DUP1 ISZERO PUSH2 0xA2 JUMPI PUSH1 0x0 DUP1 REVERT JUMPDEST POP PUSH2 0xBD PUSH1 0x4 DUP1 CALLDATASIZE SUB DUP2 ADD SWAP1 PUSH2 0xB8 SWAP2 SWAP1 PUSH2 0xA8D JUMP JUMPDEST PUSH2 0x245 JUMP JUMPDEST STOP JUMPDEST CALLVALUE DUP1 ISZERO PUSH2 0xCB JUMPI PUSH1 0x0 DUP1 REVERT JUMPDEST POP PUSH2 0xE6 PUSH1 0x4 DUP1 CALLDATASIZE SUB DUP2 ADD SWAP1 PUSH2 0xE1 SWAP2 SWAP1 PUSH2 0xB18 JUMP JUMPDEST PUSH2 0x420 JUMP JUMPDEST PUSH1 0x40 MLOAD PUSH2 0xF3 SWAP2 SWAP1 PUSH2 0xB60 JUMP JUMPDEST PUSH1 0x40 MLOAD DUP1 SWAP2 SUB SWAP1 RETURN JUMPDEST CALLVALUE DUP1 ISZERO PUSH2 0x108 JUMPI PUSH1 0x0 DUP1 REVERT JUMPDEST POP PUSH2 0x111 PUSH2 0x440 JUMP JUMPDEST PUSH1 0x40 MLOAD PUSH2 0x11E SWAP2 SWAP1 PUSH2 0xB8A JUMP JUMPDEST PUSH1 0x40 MLOAD DUP1 SWAP2 SUB SWAP1 RETURN JUMPDEST CALLVALUE DUP1 ISZERO PUSH2 0x133 JUMPI PUSH1 0x0 DUP1 REVERT JUMPDEST POP PUSH2 0x13C PUSH2 0x44A JUMP JUMPDEST PUSH1 0x40 MLOAD PUSH2 0x149 SWAP2 SWAP1 PUSH2 0xBB4 JUMP JUMPDEST PUSH1 0x40 MLOAD DUP1 SWAP2 SUB SWAP1 RETURN JUMPDEST CALLVALUE DUP1 ISZERO PUSH2 0x15E JUMPI PUSH1 0x0 DUP1 REVERT JUMPDEST POP PUSH2 0x179 PUSH1 0x4 DUP1 CALLDATASIZE SUB DUP2 ADD SWAP1 PUSH2 0x174 SWAP2 SWAP1 PUSH2 0xA8D JUMP JUMPDEST PUSH2 0x46E JUMP JUMPDEST PUSH1 0x40 MLOAD PUSH2 0x18A SWAP6 SWAP5 SWAP4 SWAP3 SWAP2 SWAP1 PUSH2 0xC89 JUMP JUMPDEST PUSH1 0x40 MLOAD DUP1 SWAP2 SUB SWAP1 RETURN JUMPDEST CALLVALUE DUP1 ISZERO PUSH2 0x19F JUMPI PUSH1 0x0 DUP1 REVERT JUMPDEST POP PUSH2 0x1A8 PUSH2 0x559 JUMP JUMPDEST PUSH1 0x40 MLOAD PUSH2 0x1B5 SWAP2 SWAP1 PUSH2 0xB8A JUMP JUMPDEST PUSH1 0x40 MLOAD DUP1 SWAP2 SUB SWAP1 RETURN JUMPDEST CALLVALUE DUP1 ISZERO PUSH2 0x1CA JUMPI PUSH1 0x0 DUP1 REVERT JUMPDEST POP PUSH2 0x1E5 PUSH1 0x4 DUP1 CALLDATASIZE SUB DUP2 ADD SWAP1 PUSH2 0x1E0 SWAP2 SWAP1 PUSH2 0xE44 JUMP JUMPDEST PUSH2 0x55F JUMP JUMPDEST STOP JUMPDEST CALLVALUE DUP1 ISZERO PUSH2 0x1F3 JUMPI PUSH1 0x0 DUP1 REVERT JUMPDEST POP PUSH2 0x1FC PUSH2 0x6AC JUMP JUMPDEST PUSH1 0x40 MLOAD PUSH2 0x209 SWAP2 SWAP1 PUSH2 0xB8A JUMP JUMPDEST PUSH1 0x40 MLOAD DUP1 SWAP2 SUB SWAP1 RETURN JUMPDEST PUSH2 0x21A PUSH2 0x6B2 JUMP JUMPDEST STOP JUMPDEST CALLVALUE DUP1 ISZERO PUSH2 0x228 JUMPI PUSH1 0x0 DUP1 REVERT JUMPDEST POP PUSH2 0x243 PUSH1 0x4 DUP1 CALLDATASIZE SUB DUP2 ADD SWAP1 PUSH2 0x23E SWAP2 SWAP1 PUSH2 0xA8D JUMP JUMPDEST PUSH2 0x7F6 JUMP JUMPDEST STOP JUMPDEST PUSH1 0x0 DUP1 SLOAD SWAP1 PUSH2 0x100 EXP SWAP1 DIV PUSH20 0xFFFFFFFFFFFFFFFFFFFFFFFFFFFFFFFFFFFFFFFF AND PUSH20 0xFFFFFFFFFFFFFFFFFFFFFFFFFFFFFFFFFFFFFFFF AND CALLER PUSH20 0xFFFFFFFFFFFFFFFFFFFFFFFFFFFFFFFFFFFFFFFF AND EQ PUSH2 0x2D3 JUMPI PUSH1 0x40 MLOAD PUSH32 0x8C379A000000000000000000000000000000000000000000000000000000000 DUP2 MSTORE PUSH1 0x4 ADD PUSH2 0x2CA SWAP1 PUSH2 0xF25 JUMP JUMPDEST PUSH1 0x40 MLOAD DUP1 SWAP2 SUB SWAP1 REVERT JUMPDEST PUSH1 0x0 PUSH1 0x5 PUSH1 0x0 DUP4 DUP2 MSTORE PUSH1 0x20 ADD SWAP1 DUP2 MSTORE PUSH1 0x20 ADD PUSH1 0x0 KECCAK256 SWAP1 POP PUSH1 0x2 PUSH1 0x3 SLOAD PUSH2 0x2F9 SWAP2 SWAP1 PUSH2 0xFA3 JUMP JUMPDEST DUP2 PUSH1 0x3 ADD SLOAD GT PUSH2 0x33E JUMPI PUSH1 0x40 MLOAD PUSH32 0x8C379A000000000000000000000000000000000000000000000000000000000 DUP2 MSTORE PUSH1 0x4 ADD PUSH2 0x335 SWAP1 PUSH2 0x1046 JUMP JUMPDEST PUSH1 0x40 MLOAD DUP1 SWAP2 SUB SWAP1 REVERT JUMPDEST DUP1 PUSH1 0x2 ADD PUSH1 0x14 SWAP1 SLOAD SWAP1 PUSH2 0x100 EXP SWAP1 DIV PUSH1 0xFF AND ISZERO PUSH2 0x390 JUMPI PUSH1 0x40 MLOAD PUSH32 0x8C379A000000000000000000000000000000000000000000000000000000000 DUP2 MSTORE PUSH1 0x4 ADD PUSH2 0x387 SWAP1 PUSH2 0x10B2 JUMP JUMPDEST PUSH1 0x40 MLOAD DUP1 SWAP2 SUB SWAP1 REVERT JUMPDEST DUP1 PUSH1 0x2 ADD PUSH1 0x0 SWAP1 SLOAD SWAP1 PUSH2 0x100 EXP SWAP1 DIV PUSH20 0xFFFFFFFFFFFFFFFFFFFFFFFFFFFFFFFFFFFFFFFF AND PUSH20 0xFFFFFFFFFFFFFFFFFFFFFFFFFFFFFFFFFFFFFFFF AND PUSH2 0x8FC DUP3 PUSH1 0x1 ADD SLOAD SWAP1 DUP2 ISZERO MUL SWAP1 PUSH1 0x40 MLOAD PUSH1 0x0 PUSH1 0x40 MLOAD DUP1 DUP4 SUB DUP2 DUP6 DUP9 DUP9 CALL SWAP4 POP POP POP POP ISZERO DUP1 ISZERO PUSH2 0x3FE JUMPI RETURNDATASIZE PUSH1 0x0 DUP1 RETURNDATACOPY RETURNDATASIZE PUSH1 0x0 REVERT JUMPDEST POP PUSH1 0x1 DUP2 PUSH1 0x2 ADD PUSH1 0x14 PUSH2 0x100 EXP DUP2 SLOAD DUP2 PUSH1 0xFF MUL NOT AND SWAP1 DUP4 ISZERO ISZERO MUL OR SWAP1 SSTORE POP POP POP JUMP JUMPDEST PUSH1 0x2 PUSH1 0x20 MSTORE DUP1 PUSH1 0x0 MSTORE PUSH1 0x40 PUSH1 0x0 KECCAK256 PUSH1 0x0 SWAP2 POP SLOAD SWAP1 PUSH2 0x100 EXP SWAP1 DIV PUSH1 0xFF AND DUP2 JUMP JUMPDEST PUSH1 0x0 PUSH1 0x4 SLOAD SWAP1 POP SWAP1 JUMP JUMPDEST PUSH1 0x0 DUP1 SLOAD SWAP1 PUSH2 0x100 EXP SWAP1 DIV PUSH20 0xFFFFFFFFFFFFFFFFFFFFFFFFFFFFFFFFFFFFFFFF AND DUP2 JUMP JUMPDEST PUSH1 0x5 PUSH1 0x20 MSTORE DUP1 PUSH1 0x0 MSTORE PUSH1 0x40 PUSH1 0x0 KECCAK256 PUSH1 0x0 SWAP2 POP SWAP1 POP DUP1 PUSH1 0x0 ADD DUP1 SLOAD PUSH2 0x491 SWAP1 PUSH2 0x1101 JUMP JUMPDEST DUP1 PUSH1 0x1F ADD PUSH1 0x20 DUP1 SWAP2 DIV MUL PUSH1 0x20 ADD PUSH1 0x40 MLOAD SWAP1 DUP2 ADD PUSH1 0x40 MSTORE DUP1 SWAP3 SWAP2 SWAP1 DUP2 DUP2 MSTORE PUSH1 0x20 ADD DUP3 DUP1 SLOAD PUSH2 0x4BD SWAP1 PUSH2 0x1101 JUMP JUMPDEST DUP1 ISZERO PUSH2 0x50A JUMPI DUP1 PUSH1 0x1F LT PUSH2 0x4DF JUMPI PUSH2 0x100 DUP1 DUP4 SLOAD DIV MUL DUP4 MSTORE SWAP2 PUSH1 0x20 ADD SWAP2 PUSH2 0x50A JUMP JUMPDEST DUP3 ADD SWAP2 SWAP1 PUSH1 0x0 MSTORE PUSH1 0x20 PUSH1 0x0 KECCAK256 SWAP1 JUMPDEST DUP2 SLOAD DUP2 MSTORE SWAP1 PUSH1 0x1 ADD SWAP1 PUSH1 0x20 ADD DUP1 DUP4 GT PUSH2 0x4ED JUMPI DUP3 SWAP1 SUB PUSH1 0x1F AND DUP3 ADD SWAP2 JUMPDEST POP POP POP POP POP SWAP1 DUP1 PUSH1 0x1 ADD SLOAD SWAP1 DUP1 PUSH1 0x2 ADD PUSH1 0x0 SWAP1 SLOAD SWAP1 PUSH2 0x100 EXP SWAP1 DIV PUSH20 0xFFFFFFFFFFFFFFFFFFFFFFFFFFFFFFFFFFFFFFFF AND SWAP1 DUP1 PUSH1 0x2 ADD PUSH1 0x14 SWAP1 SLOAD SWAP1 PUSH2 0x100 EXP SWAP1 DIV PUSH1 0xFF AND SWAP1 DUP1 PUSH1 0x3 ADD SLOAD SWAP1 POP DUP6 JUMP JUMPDEST PUSH1 0x3 SLOAD DUP2 JUMP JUMPDEST PUSH1 0x0 DUP1 SLOAD SWAP1 PUSH2 0x100 EXP SWAP1 DIV PUSH20 0xFFFFFFFFFFFFFFFFFFFFFFFFFFFFFFFFFFFFFFFF AND PUSH20 0xFFFFFFFFFFFFFFFFFFFFFFFFFFFFFFFFFFFFFFFF AND CALLER PUSH20 0xFFFFFFFFFFFFFFFFFFFFFFFFFFFFFFFFFFFFFFFF AND EQ PUSH2 0x5ED JUMPI PUSH1 0x40 MLOAD PUSH32 0x8C379A000000000000000000000000000000000000000000000000000000000 DUP2 MSTORE PUSH1 0x4 ADD PUSH2 0x5E4 SWAP1 PUSH2 0xF25 JUMP JUMPDEST PUSH1 0x40 MLOAD DUP1 SWAP2 SUB SWAP1 REVERT JUMPDEST PUSH1 0x0 PUSH1 0x5 PUSH1 0x0 PUSH1 0x4 PUSH1 0x0 DUP2 SLOAD DUP1 SWAP3 SWAP2 SWAP1 PUSH2 0x606 SWAP1 PUSH2 0x1133 JUMP JUMPDEST SWAP2 SWAP1 POP SSTORE DUP2 MSTORE PUSH1 0x20 ADD SWAP1 DUP2 MSTORE PUSH1 0x20 ADD PUSH1 0x0 KECCAK256 SWAP1 POP DUP4 DUP2 PUSH1 0x0 ADD SWAP1 DUP1 MLOAD SWAP1 PUSH1 0x20 ADD SWAP1 PUSH2 0x632 SWAP3 SWAP2 SWAP1 PUSH2 0x9A0 JUMP JUMPDEST POP DUP3 DUP2 PUSH1 0x1 ADD DUP2 SWAP1 SSTORE POP DUP2 DUP2 PUSH1 0x2 ADD PUSH1 0x0 PUSH2 0x100 EXP DUP2 SLOAD DUP2 PUSH20 0xFFFFFFFFFFFFFFFFFFFFFFFFFFFFFFFFFFFFFFFF MUL NOT AND SWAP1 DUP4 PUSH20 0xFFFFFFFFFFFFFFFFFFFFFFFFFFFFFFFFFFFFFFFF AND MUL OR SWAP1 SSTORE POP PUSH1 0x0 DUP2 PUSH1 0x2 ADD PUSH1 0x14 PUSH2 0x100 EXP DUP2 SLOAD DUP2 PUSH1 0xFF MUL NOT AND SWAP1 DUP4 ISZERO ISZERO MUL OR SWAP1 SSTORE POP PUSH1 0x0 DUP2 PUSH1 0x3 ADD DUP2 SWAP1 SSTORE POP POP POP POP POP JUMP JUMPDEST PUSH1 0x1 SLOAD DUP2 JUMP JUMPDEST PUSH1 0x1 SLOAD CALLVALUE LT ISZERO PUSH2 0x6F7 JUMPI PUSH1 0x40 MLOAD PUSH32 0x8C379A000000000000000000000000000000000000000000000000000000000 DUP2 MSTORE PUSH1 0x4 ADD PUSH2 0x6EE SWAP1 PUSH2 0x11EE JUMP JUMPDEST PUSH1 0x40 MLOAD DUP1 SWAP2 SUB SWAP1 REVERT JUMPDEST PUSH1 0x2 PUSH1 0x0 CALLER PUSH20 0xFFFFFFFFFFFFFFFFFFFFFFFFFFFFFFFFFFFFFFFF AND PUSH20 0xFFFFFFFFFFFFFFFFFFFFFFFFFFFFFFFFFFFFFFFF AND DUP2 MSTORE PUSH1 0x20 ADD SWAP1 DUP2 MSTORE PUSH1 0x20 ADD PUSH1 0x0 KECCAK256 PUSH1 0x0 SWAP1 SLOAD SWAP1 PUSH2 0x100 EXP SWAP1 DIV PUSH1 0xFF AND ISZERO PUSH2 0x784 JUMPI PUSH1 0x40 MLOAD PUSH32 0x8C379A000000000000000000000000000000000000000000000000000000000 DUP2 MSTORE PUSH1 0x4 ADD PUSH2 0x77B SWAP1 PUSH2 0x1280 JUMP JUMPDEST PUSH1 0x40 MLOAD DUP1 SWAP2 SUB SWAP1 REVERT JUMPDEST PUSH1 0x1 PUSH1 0x2 PUSH1 0x0 CALLER PUSH20 0xFFFFFFFFFFFFFFFFFFFFFFFFFFFFFFFFFFFFFFFF AND PUSH20 0xFFFFFFFFFFFFFFFFFFFFFFFFFFFFFFFFFFFFFFFF AND DUP2 MSTORE PUSH1 0x20 ADD SWAP1 DUP2 MSTORE PUSH1 0x20 ADD PUSH1 0x0 KECCAK256 PUSH1 0x0 PUSH2 0x100 EXP DUP2 SLOAD DUP2 PUSH1 0xFF MUL NOT AND SWAP1 DUP4 ISZERO ISZERO MUL OR SWAP1 SSTORE POP PUSH1 0x3 PUSH1 0x0 DUP2 SLOAD DUP1 SWAP3 SWAP2 SWAP1 PUSH2 0x7EF SWAP1 PUSH2 0x1133 JUMP JUMPDEST SWAP2 SWAP1 POP SSTORE POP JUMP JUMPDEST PUSH1 0x0 PUSH1 0x5 PUSH1 0x0 DUP4 DUP2 MSTORE PUSH1 0x20 ADD SWAP1 DUP2 MSTORE PUSH1 0x20 ADD PUSH1 0x0 KECCAK256 SWAP1 POP PUSH1 0x2 PUSH1 0x0 CALLER PUSH20 0xFFFFFFFFFFFFFFFFFFFFFFFFFFFFFFFFFFFFFFFF AND PUSH20 0xFFFFFFFFFFFFFFFFFFFFFFFFFFFFFFFFFFFFFFFF AND DUP2 MSTORE PUSH1 0x20 ADD SWAP1 DUP2 MSTORE PUSH1 0x20 ADD PUSH1 0x0 KECCAK256 PUSH1 0x0 SWAP1 SLOAD SWAP1 PUSH2 0x100 EXP SWAP1 DIV PUSH1 0xFF AND PUSH2 0x899 JUMPI PUSH1 0x40 MLOAD PUSH32 0x8C379A000000000000000000000000000000000000000000000000000000000 DUP2 MSTORE PUSH1 0x4 ADD PUSH2 0x890 SWAP1 PUSH2 0x1312 JUMP JUMPDEST PUSH1 0x40 MLOAD DUP1 SWAP2 SUB SWAP1 REVERT JUMPDEST DUP1 PUSH1 0x4 ADD PUSH1 0x0 CALLER PUSH20 0xFFFFFFFFFFFFFFFFFFFFFFFFFFFFFFFFFFFFFFFF AND PUSH20 0xFFFFFFFFFFFFFFFFFFFFFFFFFFFFFFFFFFFFFFFF AND DUP2 MSTORE PUSH1 0x20 ADD SWAP1 DUP2 MSTORE PUSH1 0x20 ADD PUSH1 0x0 KECCAK256 PUSH1 0x0 SWAP1 SLOAD SWAP1 PUSH2 0x100 EXP SWAP1 DIV PUSH1 0xFF AND ISZERO PUSH2 0x928 JUMPI PUSH1 0x40 MLOAD PUSH32 0x8C379A000000000000000000000000000000000000000000000000000000000 DUP2 MSTORE PUSH1 0x4 ADD PUSH2 0x91F SWAP1 PUSH2 0x13A4 JUMP JUMPDEST PUSH1 0x40 MLOAD DUP1 SWAP2 SUB SWAP1 REVERT JUMPDEST PUSH1 0x1 DUP2 PUSH1 0x4 ADD PUSH1 0x0 CALLER PUSH20 0xFFFFFFFFFFFFFFFFFFFFFFFFFFFFFFFFFFFFFFFF AND PUSH20 0xFFFFFFFFFFFFFFFFFFFFFFFFFFFFFFFFFFFFFFFF AND DUP2 MSTORE PUSH1 0x20 ADD SWAP1 DUP2 MSTORE PUSH1 0x20 ADD PUSH1 0x0 KECCAK256 PUSH1 0x0 PUSH2 0x100 EXP DUP2 SLOAD DUP2 PUSH1 0xFF MUL NOT AND SWAP1 DUP4 ISZERO ISZERO MUL OR SWAP1 SSTORE POP DUP1 PUSH1 0x3 ADD PUSH1 0x0 DUP2 SLOAD DUP1 SWAP3 SWAP2 SWAP1 PUSH2 0x997 SWAP1 PUSH2 0x1133 JUMP JUMPDEST SWAP2 SWAP1 POP SSTORE POP POP POP JUMP JUMPDEST DUP3 DUP1 SLOAD PUSH2 0x9AC SWAP1 PUSH2 0x1101 JUMP JUMPDEST SWAP1 PUSH1 0x0 MSTORE PUSH1 0x20 PUSH1 0x0 KECCAK256 SWAP1 PUSH1 0x1F ADD PUSH1 0x20 SWAP1 DIV DUP2 ADD SWAP3 DUP3 PUSH2 0x9CE JUMPI PUSH1 0x0 DUP6 SSTORE PUSH2 0xA15 JUMP JUMPDEST DUP3 PUSH1 0x1F LT PUSH2 0x9E7 JUMPI DUP1 MLOAD PUSH1 0xFF NOT AND DUP4 DUP1 ADD OR DUP6 SSTORE PUSH2 0xA15 JUMP JUMPDEST DUP3 DUP1 ADD PUSH1 0x1 ADD DUP6 SSTORE DUP3 ISZERO PUSH2 0xA15 JUMPI SWAP2 DUP3 ADD JUMPDEST DUP3 DUP2 GT ISZERO PUSH2 0xA14 JUMPI DUP3 MLOAD DUP3 SSTORE SWAP2 PUSH1 0x20 ADD SWAP2 SWAP1 PUSH1 0x1 ADD SWAP1 PUSH2 0x9F9 JUMP JUMPDEST JUMPDEST POP SWAP1 POP PUSH2 0xA22 SWAP2 SWAP1 PUSH2 0xA26 JUMP JUMPDEST POP SWAP1 JUMP JUMPDEST JUMPDEST DUP1 DUP3 GT ISZERO PUSH2 0xA3F JUMPI PUSH1 0x0 DUP2 PUSH1 0x0 SWAP1 SSTORE POP PUSH1 0x1 ADD PUSH2 0xA27 JUMP JUMPDEST POP SWAP1 JUMP JUMPDEST PUSH1 0x0 PUSH1 0x40 MLOAD SWAP1 POP SWAP1 JUMP JUMPDEST PUSH1 0x0 DUP1 REVERT JUMPDEST PUSH1 0x0 DUP1 REVERT JUMPDEST PUSH1 0x0 DUP2 SWAP1 POP SWAP2 SWAP1 POP JUMP JUMPDEST PUSH2 0xA6A DUP2 PUSH2 0xA57 JUMP JUMPDEST DUP2 EQ PUSH2 0xA75 JUMPI PUSH1 0x0 DUP1 REVERT JUMPDEST POP JUMP JUMPDEST PUSH1 0x0 DUP2 CALLDATALOAD SWAP1 POP PUSH2 0xA87 DUP2 PUSH2 0xA61 JUMP JUMPDEST SWAP3 SWAP2 POP POP JUMP JUMPDEST PUSH1 0x0 PUSH1 0x20 DUP3 DUP5 SUB SLT ISZERO PUSH2 0xAA3 JUMPI PUSH2 0xAA2 PUSH2 0xA4D JUMP JUMPDEST JUMPDEST PUSH1 0x0 PUSH2 0xAB1 DUP5 DUP3 DUP6 ADD PUSH2 0xA78 JUMP JUMPDEST SWAP2 POP POP SWAP3 SWAP2 POP POP JUMP JUMPDEST PUSH1 0x0 PUSH20 0xFFFFFFFFFFFFFFFFFFFFFFFFFFFFFFFFFFFFFFFF DUP3 AND SWAP1 POP SWAP2 SWAP1 POP JUMP JUMPDEST PUSH1 0x0 PUSH2 0xAE5 DUP3 PUSH2 0xABA JUMP JUMPDEST SWAP1 POP SWAP2 SWAP1 POP JUMP JUMPDEST PUSH2 0xAF5 DUP2 PUSH2 0xADA JUMP JUMPDEST DUP2 EQ PUSH2 0xB00 JUMPI PUSH1 0x0 DUP1 REVERT JUMPDEST POP JUMP JUMPDEST PUSH1 0x0 DUP2 CALLDATALOAD SWAP1 POP PUSH2 0xB12 DUP2 PUSH2 0xAEC JUMP JUMPDEST SWAP3 SWAP2 POP POP JUMP JUMPDEST PUSH1 0x0 PUSH1 0x20 DUP3 DUP5 SUB SLT ISZERO PUSH2 0xB2E JUMPI PUSH2 0xB2D PUSH2 0xA4D JUMP JUMPDEST JUMPDEST PUSH1 0x0 PUSH2 0xB3C DUP5 DUP3 DUP6 ADD PUSH2 0xB03 JUMP JUMPDEST SWAP2 POP POP SWAP3 SWAP2 POP POP JUMP JUMPDEST PUSH1 0x0 DUP2 ISZERO ISZERO SWAP1 POP SWAP2 SWAP1 POP JUMP JUMPDEST PUSH2 0xB5A DUP2 PUSH2 0xB45 JUMP JUMPDEST DUP3 MSTORE POP POP JUMP JUMPDEST PUSH1 0x0 PUSH1 0x20 DUP3 ADD SWAP1 POP PUSH2 0xB75 PUSH1 0x0 DUP4 ADD DUP5 PUSH2 0xB51 JUMP JUMPDEST SWAP3 SWAP2 POP POP JUMP JUMPDEST PUSH2 0xB84 DUP2 PUSH2 0xA57 JUMP JUMPDEST DUP3 MSTORE POP POP JUMP JUMPDEST PUSH1 0x0 PUSH1 0x20 DUP3 ADD SWAP1 POP PUSH2 0xB9F PUSH1 0x0 DUP4 ADD DUP5 PUSH2 0xB7B JUMP JUMPDEST SWAP3 SWAP2 POP POP JUMP JUMPDEST PUSH2 0xBAE DUP2 PUSH2 0xADA JUMP JUMPDEST DUP3 MSTORE POP POP JUMP JUMPDEST PUSH1 0x0 PUSH1 0x20 DUP3 ADD SWAP1 POP PUSH2 0xBC9 PUSH1 0x0 DUP4 ADD DUP5 PUSH2 0xBA5 JUMP JUMPDEST SWAP3 SWAP2 POP POP JUMP JUMPDEST PUSH1 0x0 DUP2 MLOAD SWAP1 POP SWAP2 SWAP1 POP JUMP JUMPDEST PUSH1 0x0 DUP3 DUP3 MSTORE PUSH1 0x20 DUP3 ADD SWAP1 POP SWAP3 SWAP2 POP POP JUMP JUMPDEST PUSH1 0x0 JUMPDEST DUP4 DUP2 LT ISZERO PUSH2 0xC09 JUMPI DUP1 DUP3 ADD MLOAD DUP2 DUP5 ADD MSTORE PUSH1 0x20 DUP2 ADD SWAP1 POP PUSH2 0xBEE JUMP JUMPDEST DUP4 DUP2 GT ISZERO PUSH2 0xC18 JUMPI PUSH1 0x0 DUP5 DUP5 ADD MSTORE JUMPDEST POP POP POP POP JUMP JUMPDEST PUSH1 0x0 PUSH1 0x1F NOT PUSH1 0x1F DUP4 ADD AND SWAP1 POP SWAP2 SWAP1 POP JUMP JUMPDEST PUSH1 0x0 PUSH2 0xC3A DUP3 PUSH2 0xBCF JUMP JUMPDEST PUSH2 0xC44 DUP2 DUP6 PUSH2 0xBDA JUMP JUMPDEST SWAP4 POP PUSH2 0xC54 DUP2 DUP6 PUSH1 0x20 DUP7 ADD PUSH2 0xBEB JUMP JUMPDEST PUSH2 0xC5D DUP2 PUSH2 0xC1E JUMP JUMPDEST DUP5 ADD SWAP2 POP POP SWAP3 SWAP2 POP POP JUMP JUMPDEST PUSH1 0x0 PUSH2 0xC73 DUP3 PUSH2 0xABA JUMP JUMPDEST SWAP1 POP SWAP2 SWAP1 POP JUMP JUMPDEST PUSH2 0xC83 DUP2 PUSH2 0xC68 JUMP JUMPDEST DUP3 MSTORE POP POP JUMP JUMPDEST PUSH1 0x0 PUSH1 0xA0 DUP3 ADD SWAP1 POP DUP2 DUP2 SUB PUSH1 0x0 DUP4 ADD MSTORE PUSH2 0xCA3 DUP2 DUP9 PUSH2 0xC2F JUMP JUMPDEST SWAP1 POP PUSH2 0xCB2 PUSH1 0x20 DUP4 ADD DUP8 PUSH2 0xB7B JUMP JUMPDEST PUSH2 0xCBF PUSH1 0x40 DUP4 ADD DUP7 PUSH2 0xC7A JUMP JUMPDEST PUSH2 0xCCC PUSH1 0x60 DUP4 ADD DUP6 PUSH2 0xB51 JUMP JUMPDEST PUSH2 0xCD9 PUSH1 0x80 DUP4 ADD DUP5 PUSH2 0xB7B JUMP JUMPDEST SWAP7 SWAP6 POP POP POP POP POP POP JUMP JUMPDEST PUSH1 0x0 DUP1 REVERT JUMPDEST PUSH1 0x0 DUP1 REVERT JUMPDEST PUSH32 0x4E487B7100000000000000000000000000000000000000000000000000000000 PUSH1 0x0 MSTORE PUSH1 0x41 PUSH1 0x4 MSTORE PUSH1 0x24 PUSH1 0x0 REVERT JUMPDEST PUSH2 0xD25 DUP3 PUSH2 0xC1E JUMP JUMPDEST DUP2 ADD DUP2 DUP2 LT PUSH8 0xFFFFFFFFFFFFFFFF DUP3 GT OR ISZERO PUSH2 0xD44 JUMPI PUSH2 0xD43 PUSH2 0xCED JUMP JUMPDEST JUMPDEST DUP1 PUSH1 0x40 MSTORE POP POP POP JUMP JUMPDEST PUSH1 0x0 PUSH2 0xD57 PUSH2 0xA43 JUMP JUMPDEST SWAP1 POP PUSH2 0xD63 DUP3 DUP3 PUSH2 0xD1C JUMP JUMPDEST SWAP2 SWAP1 POP JUMP JUMPDEST PUSH1 0x0 PUSH8 0xFFFFFFFFFFFFFFFF DUP3 GT ISZERO PUSH2 0xD83 JUMPI PUSH2 0xD82 PUSH2 0xCED JUMP JUMPDEST JUMPDEST PUSH2 0xD8C DUP3 PUSH2 0xC1E JUMP JUMPDEST SWAP1 POP PUSH1 0x20 DUP2 ADD SWAP1 POP SWAP2 SWAP1 POP JUMP JUMPDEST DUP3 DUP2 DUP4 CALLDATACOPY PUSH1 0x0 DUP4 DUP4 ADD MSTORE POP POP POP JUMP JUMPDEST PUSH1 0x0 PUSH2 0xDBB PUSH2 0xDB6 DUP5 PUSH2 0xD68 JUMP JUMPDEST PUSH2 0xD4D JUMP JUMPDEST SWAP1 POP DUP3 DUP2 MSTORE PUSH1 0x20 DUP2 ADD DUP5 DUP5 DUP5 ADD GT ISZERO PUSH2 0xDD7 JUMPI PUSH2 0xDD6 PUSH2 0xCE8 JUMP JUMPDEST JUMPDEST PUSH2 0xDE2 DUP5 DUP3 DUP6 PUSH2 0xD99 JUMP JUMPDEST POP SWAP4 SWAP3 POP POP POP JUMP JUMPDEST PUSH1 0x0 DUP3 PUSH1 0x1F DUP4 ADD SLT PUSH2 0xDFF JUMPI PUSH2 0xDFE PUSH2 0xCE3 JUMP JUMPDEST JUMPDEST DUP2 CALLDATALOAD PUSH2 0xE0F DUP5 DUP3 PUSH1 0x20 DUP7 ADD PUSH2 0xDA8 JUMP JUMPDEST SWAP2 POP POP SWAP3 SWAP2 POP POP JUMP JUMPDEST PUSH2 0xE21 DUP2 PUSH2 0xC68 JUMP JUMPDEST DUP2 EQ PUSH2 0xE2C JUMPI PUSH1 0x0 DUP1 REVERT JUMPDEST POP JUMP JUMPDEST PUSH1 0x0 DUP2 CALLDATALOAD SWAP1 POP PUSH2 0xE3E DUP2 PUSH2 0xE18 JUMP JUMPDEST SWAP3 SWAP2 POP POP JUMP JUMPDEST PUSH1 0x0 DUP1 PUSH1 0x0 PUSH1 0x60 DUP5 DUP7 SUB SLT ISZERO PUSH2 0xE5D JUMPI PUSH2 0xE5C PUSH2 0xA4D JUMP JUMPDEST JUMPDEST PUSH1 0x0 DUP5 ADD CALLDATALOAD PUSH8 0xFFFFFFFFFFFFFFFF DUP2 GT ISZERO PUSH2 0xE7B JUMPI PUSH2 0xE7A PUSH2 0xA52 JUMP JUMPDEST JUMPDEST PUSH2 0xE87 DUP7 DUP3 DUP8 ADD PUSH2 0xDEA JUMP JUMPDEST SWAP4 POP POP PUSH1 0x20 PUSH2 0xE98 DUP7 DUP3 DUP8 ADD PUSH2 0xA78 JUMP JUMPDEST SWAP3 POP POP PUSH1 0x40 PUSH2 0xEA9 DUP7 DUP3 DUP8 ADD PUSH2 0xE2F JUMP JUMPDEST SWAP2 POP POP SWAP3 POP SWAP3 POP SWAP3 JUMP JUMPDEST PUSH32 0x4F6E6C79207468652063616D706169676E206D616E616765722063616E206361 PUSH1 0x0 DUP3 ADD MSTORE PUSH32 0x6C6C20746869732066756E6374696F6E2E000000000000000000000000000000 PUSH1 0x20 DUP3 ADD MSTORE POP JUMP JUMPDEST PUSH1 0x0 PUSH2 0xF0F PUSH1 0x31 DUP4 PUSH2 0xBDA JUMP JUMPDEST SWAP2 POP PUSH2 0xF1A DUP3 PUSH2 0xEB3 JUMP JUMPDEST PUSH1 0x40 DUP3 ADD SWAP1 POP SWAP2 SWAP1 POP JUMP JUMPDEST PUSH1 0x0 PUSH1 0x20 DUP3 ADD SWAP1 POP DUP2 DUP2 SUB PUSH1 0x0 DUP4 ADD MSTORE PUSH2 0xF3E DUP2 PUSH2 0xF02 JUMP JUMPDEST SWAP1 POP SWAP2 SWAP1 POP JUMP JUMPDEST PUSH32 0x4E487B7100000000000000000000000000000000000000000000000000000000 PUSH1 0x0 MSTORE PUSH1 0x12 PUSH1 0x4 MSTORE PUSH1 0x24 PUSH1 0x0 REVERT JUMPDEST PUSH32 0x4E487B7100000000000000000000000000000000000000000000000000000000 PUSH1 0x0 MSTORE PUSH1 0x11 PUSH1 0x4 MSTORE PUSH1 0x24 PUSH1 0x0 REVERT JUMPDEST PUSH1 0x0 PUSH2 0xFAE DUP3 PUSH2 0xA57 JUMP JUMPDEST SWAP2 POP PUSH2 0xFB9 DUP4 PUSH2 0xA57 JUMP JUMPDEST SWAP3 POP DUP3 PUSH2 0xFC9 JUMPI PUSH2 0xFC8 PUSH2 0xF45 JUMP JUMPDEST JUMPDEST DUP3 DUP3 DIV SWAP1 POP SWAP3 SWAP2 POP POP JUMP JUMPDEST PUSH32 0x546869732072657175657374206E65656473206D6F726520617070726F76616C PUSH1 0x0 DUP3 ADD MSTORE PUSH32 0x73206265666F72652069742063616E2062652066696E616C697A656400000000 PUSH1 0x20 DUP3 ADD MSTORE POP JUMP JUMPDEST PUSH1 0x0 PUSH2 0x1030 PUSH1 0x3C DUP4 PUSH2 0xBDA JUMP JUMPDEST SWAP2 POP PUSH2 0x103B DUP3 PUSH2 0xFD4 JUMP JUMPDEST PUSH1 0x40 DUP3 ADD SWAP1 POP SWAP2 SWAP1 POP JUMP JUMPDEST PUSH1 0x0 PUSH1 0x20 DUP3 ADD SWAP1 POP DUP2 DUP2 SUB PUSH1 0x0 DUP4 ADD MSTORE PUSH2 0x105F DUP2 PUSH2 0x1023 JUMP JUMPDEST SWAP1 POP SWAP2 SWAP1 POP JUMP JUMPDEST PUSH32 0x5265717565737420616C726561647920636F6D706C6574656400000000000000 PUSH1 0x0 DUP3 ADD MSTORE POP JUMP JUMPDEST PUSH1 0x0 PUSH2 0x109C PUSH1 0x19 DUP4 PUSH2 0xBDA JUMP JUMPDEST SWAP2 POP PUSH2 0x10A7 DUP3 PUSH2 0x1066 JUMP JUMPDEST PUSH1 0x20 DUP3 ADD SWAP1 POP SWAP2 SWAP1 POP JUMP JUMPDEST PUSH1 0x0 PUSH1 0x20 DUP3 ADD SWAP1 POP DUP2 DUP2 SUB PUSH1 0x0 DUP4 ADD MSTORE PUSH2 0x10CB DUP2 PUSH2 0x108F JUMP JUMPDEST SWAP1 POP SWAP2 SWAP1 POP JUMP JUMPDEST PUSH32 0x4E487B7100000000000000000000000000000000000000000000000000000000 PUSH1 0x0 MSTORE PUSH1 0x22 PUSH1 0x4 MSTORE PUSH1 0x24 PUSH1 0x0 REVERT JUMPDEST PUSH1 0x0 PUSH1 0x2 DUP3 DIV SWAP1 POP PUSH1 0x1 DUP3 AND DUP1 PUSH2 0x1119 JUMPI PUSH1 0x7F DUP3 AND SWAP2 POP JUMPDEST PUSH1 0x20 DUP3 LT DUP2 EQ ISZERO PUSH2 0x112D JUMPI PUSH2 0x112C PUSH2 0x10D2 JUMP JUMPDEST JUMPDEST POP SWAP2 SWAP1 POP JUMP JUMPDEST PUSH1 0x0 PUSH2 0x113E DUP3 PUSH2 0xA57 JUMP JUMPDEST SWAP2 POP PUSH32 0xFFFFFFFFFFFFFFFFFFFFFFFFFFFFFFFFFFFFFFFFFFFFFFFFFFFFFFFFFFFFFFFF DUP3 EQ ISZERO PUSH2 0x1171 JUMPI PUSH2 0x1170 PUSH2 0xF74 JUMP JUMPDEST JUMPDEST PUSH1 0x1 DUP3 ADD SWAP1 POP SWAP2 SWAP1 POP JUMP JUMPDEST PUSH32 0x56616C7565206C657373207468616E206D696E696D756D20636F6E7472696275 PUSH1 0x0 DUP3 ADD MSTORE PUSH32 0x74696F6E00000000000000000000000000000000000000000000000000000000 PUSH1 0x20 DUP3 ADD MSTORE POP JUMP JUMPDEST PUSH1 0x0 PUSH2 0x11D8 PUSH1 0x24 DUP4 PUSH2 0xBDA JUMP JUMPDEST SWAP2 POP PUSH2 0x11E3 DUP3 PUSH2 0x117C JUMP JUMPDEST PUSH1 0x40 DUP3 ADD SWAP1 POP SWAP2 SWAP1 POP JUMP JUMPDEST PUSH1 0x0 PUSH1 0x20 DUP3 ADD SWAP1 POP DUP2 DUP2 SUB PUSH1 0x0 DUP4 ADD MSTORE PUSH2 0x1207 DUP2 PUSH2 0x11CB JUMP JUMPDEST SWAP1 POP SWAP2 SWAP1 POP JUMP JUMPDEST PUSH32 0x596F7520616C726561647920646F6E6174656420746F20746869732063616D70 PUSH1 0x0 DUP3 ADD MSTORE PUSH32 0x6169676E00000000000000000000000000000000000000000000000000000000 PUSH1 0x20 DUP3 ADD MSTORE POP JUMP JUMPDEST PUSH1 0x0 PUSH2 0x126A PUSH1 0x24 DUP4 PUSH2 0xBDA JUMP JUMPDEST SWAP2 POP PUSH2 0x1275 DUP3 PUSH2 0x120E JUMP JUMPDEST PUSH1 0x40 DUP3 ADD SWAP1 POP SWAP2 SWAP1 POP JUMP JUMPDEST PUSH1 0x0 PUSH1 0x20 DUP3 ADD SWAP1 POP DUP2 DUP2 SUB PUSH1 0x0 DUP4 ADD MSTORE PUSH2 0x1299 DUP2 PUSH2 0x125D JUMP JUMPDEST SWAP1 POP SWAP2 SWAP1 POP JUMP JUMPDEST PUSH32 0x4F6E6C7920636F6E7472696275746F72732063616E20617070726F7665206120 PUSH1 0x0 DUP3 ADD MSTORE PUSH32 0x7370656369666963207061796D656E7420726571756573740000000000000000 PUSH1 0x20 DUP3 ADD MSTORE POP JUMP JUMPDEST PUSH1 0x0 PUSH2 0x12FC PUSH1 0x38 DUP4 PUSH2 0xBDA JUMP JUMPDEST SWAP2 POP PUSH2 0x1307 DUP3 PUSH2 0x12A0 JUMP JUMPDEST PUSH1 0x40 DUP3 ADD SWAP1 POP SWAP2 SWAP1 POP JUMP JUMPDEST PUSH1 0x0 PUSH1 0x20 DUP3 ADD SWAP1 POP DUP2 DUP2 SUB PUSH1 0x0 DUP4 ADD MSTORE PUSH2 0x132B DUP2 PUSH2 0x12EF JUMP JUMPDEST SWAP1 POP SWAP2 SWAP1 POP JUMP JUMPDEST PUSH32 0x596F75206861766520616C726561647920766F74656420746F20617070726F76 PUSH1 0x0 DUP3 ADD MSTORE PUSH32 0x6520746869732072657175657374000000000000000000000000000000000000 PUSH1 0x20 DUP3 ADD MSTORE POP JUMP JUMPDEST PUSH1 0x0 PUSH2 0x138E PUSH1 0x2E DUP4 PUSH2 0xBDA JUMP JUMPDEST SWAP2 POP PUSH2 0x1399 DUP3 PUSH2 0x1332 JUMP JUMPDEST PUSH1 0x40 DUP3 ADD SWAP1 POP SWAP2 SWAP1 POP JUMP JUMPDEST PUSH1 0x0 PUSH1 0x20 DUP3 ADD SWAP1 POP DUP2 DUP2 SUB PUSH1 0x0 DUP4 ADD MSTORE PUSH2 0x13BD DUP2 PUSH2 0x1381 JUMP JUMPDEST SWAP1 POP SWAP2 SWAP1 POP JUMP INVALID LOG2 PUSH5 0x6970667358 0x22 SLT KECCAK256 JUMP RETURN PUSH10 0xF3CBA3FDF531FC9EC96A 0xC7 0xE5 0x5C GAS PUSH2 0x7B89 0xDA 0xB7 OR DUP8 SWAP8 DELEGATECALL INVALID SWAP4 EXP 0x26 SSTORE PUSH2 0x6473 PUSH16 0x6C634300080900330000000000000000 "},"gasEstimates":{"creation":{"codeDepositCost":"1022800","executionCost":"infinite","totalCost":"infinite"},"external":{"approveRequest(uint256)":"infinite","approvers(address)":"2868","approversCount()":"2429","contribute()":"53272","createRequest(string,uint256,address)":"infinite","finalizeRequest(uint256)":"infinite","getRequestsCount()":"2482","manager()":"2578","minimumContribution()":"2473","requests(uint256)":"infinite"}},"methodIdentifiers":{"approveRequest(uint256)":"d7d1bbdb","approvers(address)":"0a144391","approversCount()":"82fde093","contribute()":"d7bb99ba","createRequest(string,uint256,address)":"8a9cfd55","finalizeRequest(uint256)":"03441006","getRequestsCount()":"3410452a","manager()":"481c6a75","minimumContribution()":"937e09b1","requests(uint256)":"81d12c58"}},"storageLayout":{"storage":[{"astId":56,"contract":"Campaign.sol:Campaign","label":"manager","offset":0,"slot":"0","type":"t_address"},{"astId":58,"contract":"Campaign.sol:Campaign","label":"minimumContribution","offset":0,"slot":"1","type":"t_uint256"},{"astId":62,"contract":"Campaign.sol:Campaign","label":"approvers","offset":0,"slot":"2","type":"t_mapping(t_address,t_bool)"},{"astId":64,"contract":"Campaign.sol:Campaign","label":"approversCount","offset":0,"slot":"3","type":"t_uint256"},{"astId":66,"contract":"Campaign.sol:Campaign","label":"numberOfRequests","offset":0,"slot":"4","type":"t_uint256"},{"astId":71,"contract":"Campaign.sol:Campaign","label":"requests","offset":0,"slot":"5","type":"t_mapping(t_uint256,t_struct(Request)54_storage)"}],"types":{"t_address":{"encoding":"inplace","label":"address","numberOfBytes":"20"},"t_address_payable":{"encoding":"inplace","label":"address payable","numberOfBytes":"20"},"t_bool":{"encoding":"inplace","label":"bool","numberOfBytes":"1"},"t_mapping(t_address,t_bool)":{"encoding":"mapping","key":"t_address","label":"mapping(address => bool)","numberOfBytes":"32","value":"t_bool"},"t_mapping(t_uint256,t_struct(Request)54_storage)":{"encoding":"mapping","key":"t_uint256","label":"mapping(uint256 => struct Campaign.Request)","numberOfBytes":"32","value":"t_struct(Request)54_storage"},"t_string_storage":{"encoding":"bytes","label":"string","numberOfBytes":"32"},"t_struct(Request)54_storage":{"encoding":"inplace","label":"struct Campaign.Request","members":[{"astId":41,"contract":"Campaign.sol:Campaign","label":"description","offset":0,"slot":"0","type":"t_string_storage"},{"astId":43,"contract":"Campaign.sol:Campaign","label":"value","offset":0,"slot":"1","type":"t_uint256"},{"astId":45,"contract":"Campaign.sol:Campaign","label":"recipient","offset":0,"slot":"2","type":"t_address_payable"},{"astId":47,"contract":"Campaign.sol:Campaign","label":"complete","offset":20,"slot":"2","type":"t_bool"},{"astId":49,"contract":"Campaign.sol:Campaign","label":"approvalCount","offset":0,"slot":"3","type":"t_uint256"},{"astId":53,"contract":"Campaign.sol:Campaign","label":"approvals","offset":0,"slot":"4","type":"t_mapping(t_address,t_bool)"}],"numberOfBytes":"160"},"t_uint256":{"encoding":"inplace","label":"uint256","numberOfBytes":"32"}}},"userdoc":{"kind":"user","methods":{},"version":1}}